:10000000406800202D370100D147020081370100F0
:1000100081370100813701008137010000000000B5
:10002000000000000000000000000000313401006A
:100030008137010000000000D9330100E1350200E2
:10004000ED360100798D0200ED360100ED3601003C
:10005000ED360100ED360100ED360100ED36010010
:10006000418D0200ED360100ED3601005F8D02008A
:10007000ED360100ED360100ED360100ED360100F0
:10008000ED360100ED360100ED360100ED360100E0
:10009000ED360100ED360100ED360100ED360100D0
:1000A000ED360100ED360100ED360100ED360100C0
:1000B000ED360100ED360100ED360100ED360100B0
:1000C000ED360100ED360100ED360100ED360100A0
:0C00D000ED360100ED360100ED360100B8
:1000DC0053B94AB9002908BF00281CBF4FF0FF31A3
:1000EC004FF0FF3000F06CB9ADF1080C6DE904CEA7
:1000FC0000F006F8DDF804E0DDE9022304B07047F7
:10010C002DE9F047089E0D4604468E46002B40F024
:10011C0082808A42174646D9B2FA82F24AB1C2F1BB
:10012C00200105FA02F320FA01F1974041EA030E8F
:10013C0094404FEA1748230CBEFBF8FCB9B208FBFD
:10014C001CEE43EA0E430CFB01F098420AD9FB1853
:10015C000CF1FF3580F01681984240F21381ACF11E
:10016C00020C3B441B1AA4B2B3FBF8F008FB10338F
:10017C0044EA034400FB01F1A14209D93C1900F106
:10018C00FF3380F00181A14240F2FE8002383C44F2
:10019C00641A40EA0C4000211EB1D4400023C6E989
:1001AC000043BDE8F08702B9FFDEB2FA82F2002A02
:1001BC004FD1CB1B4FEA174E1FFA87F80121B3FB27
:1001CC00FEFC250C0EFB1C3345EA034508FB0CF327
:1001DC00AB4207D97D190CF1FF3002D2AB4200F2D1
:1001EC00E7808446ED1AA3B2B5FBFEF00EFB10556A
:1001FC0043EA054408FB00F8A04507D93C1900F177
:10020C00FF3302D2A04500F2D7801846A4EB0804B5
:10021C0040EA0C40C0E78B4208D9002E00F0AF80BA
:10022C000021C6E900050846BDE8F087B3FA83F162
:10023C0000294BD1AB4202D3824200F2B780841A20
:10024C0065EB030301209E46002EAAD0C6E9004EA2
:10025C00A7E7C2F1200C01FA02F3974020FA0CF048
:10026C004FEA174E21FA0CFC1843BCFBFEF1050CAF
:10027C000EFB11CC1FFA87F845EA0C4501FB08F37D
:10028C00AB4204FA02F409D97D1901F1FF3C80F06C
:10029C008B80AB4240F2888002393D44EB1A85B228
:1002AC00B3FBFEF00EFB103345EA034500FB08F3ED
:1002BC00AB4207D97D1900F1FF3C71D2AB426FD92B
:1002CC0002383D44EB1A40EA014178E7C1F1200CB9
:1002DC008B4022FA0CF71F4320FA0CF405FA01F3B9
:1002EC004FEA174E25FA0CF51C43230CB5FBFEF90F
:1002FC001FFA87F80EFB195543EA054509FB08FA66
:10030C00AA4502FA01F200FA01F308D97D1909F1A4
:10031C00FF3047D2AA4545D9A9F102093D44A5EBC6
:10032C000A05A4B2B5FBFEF00EFB105544EA0544D9
:10033C0000FB08F8A04507D93C1900F1FF352DD278
:10034C00A0452BD902383C4440EA0940A4EB0804F0
:10035C00A0FB02894C45C6464D4619D316D05EB15A
:10036C00B3EB0E0264EB050404FA0CFCCA404CEA35
:10037C000202CC40C6E900240021BDE8F0873146DA
:10038C0030460EE7AC46EDE6184601E74345E6D2AB
:10039C00B8EB020E69EB07050138E0E72846D3E716
:1003AC0060468FE78146BAE7614677E708464BE738
:1003BC00ACF1020C3D4415E702383C4426E700BF83
:1003CC00704700BF002819D003781349134A13B1A2
:1003DC00012B0ED011E00379012B00D06BB94379BE
:1003EC000BB1012B09D18368643B8B4205D2C068E9
:1003FC000EE00379012B02D00BB10020704743793A
:10040C000BB1012BF9D1C368643B8B42F5D28068E8
:10041C009042F2D8012070473D860100FF1FA107D2
:10042C0010B5054C206810B1804700202060BDE855
:10043C00104002F019B80000000000202DE9F04136
:10044C000E46050004D000F041F8074600240AE0EF
:10045C006FF01500BDE8F081204600F03DF8807883
:10046C0038B1641CE4B2BC42F6D300BF6FF00B0091
:10047C00F0E72746FF2CF9D0204600F02DF8044673
:10048C000BF05DFC074801F0CBFFE070202805D095
:10049C0001206560A07037700020DBE76FF0220050
:1004AC00D8E7000091BA000010B5820702D06FF0B7
:1004BC000D0010BD044A1170506018B14A010021A2
:1004CC000BF0C3FE002010BD040000200148007892
:1004DC00704700000400002004490A78904201D3C0
:1004EC0000207047496801EB401070470400002061
:1004FC00094910B503464A680020097807E000BF97
:10050C0002EB4014E4789C4204D0401CC0B28842F8
:10051C00F6D3FF2010BD0000040000202DE9F843A5
:10052C001546044600F10802C81C4142DFF89CC085
:10053C001F46281A0023089EBCEB050C9B4104D2D5
:10054C0040F2F151702003F083F9214B994204DD04
:10055C0040F2F251702003F07BF91E4B994204DA01
:10056C0040F2F351702003F073F91B498842A8BF85
:10057C001A4903DA0028B8BF174900DA4018214697
:10058C0002F0CEFD206820F07F41E819C01C2160EC
:10059C00002E08BF7A3008D0012E08BF453004D099
:1005AC0040F29961702003F053F96A46211D02F064
:1005BC00B7FD9DF9000000286068C4BF401C606056
:1005CC0020F07F406060BDE8F8830000FF7F841E50
:1005DC000020A10700E05EF80080841E00807BE113
:1005EC0070B50546202A27D019481A4C00EB831CFD
:1005FC000CEB420004EB8303202922D00CEB4101CD
:10060C0040784C784870204601460CEB41009142F2
:10061C0005704078F8D193F82220202A1ABF0CEBF1
:10062C004202547083F8214020220CEB410C8CF8D0
:10063C00012083F8221070BD4FF42371702003F059
:10064C0007F993F82040407883F82000DBE700009E
:10065C00DC0C00205C0D00202DE9F34F87B0044624
:10066C00002002909E48089F9E4E00EB870003904E
:10067C0090F820502020E9460DF104088DF8000078
:10068C0006F5207A202D18BF0AEB871B32D000BF4D
:10069C0005EB850006EB8000011D80682268101AAE
:1006AC000002C21700EB1260001223D46089D0B193
:1006BC004889C0B9084600F0DBFC05AA04A902F081
:1006CC002FFD9DF914000028CCBF0120002000F163
:1006DC00330104982268101A0002C21700EB126052
:1006EC000012884206DB0BEB450089F80050457878
:1006FC00202DCDD199F8000088F80000A146202DBE
:10070C001CBF794800EB871B00F0E58005EB8501E9
:10071C0006EB810AD9F80420DAF804104846891A45
:10072C000902CA1701EB12610AF1040709121FD45E
:10073C007989002900F0CF804189002940F0CB80D5
:10074C0000F096FC05AA04A902F0EAFC9DF914003D
:10075C000028CCBF0120002000F1330104983A6836
:10076C00101A0002C21700EB1260001288427DDAE8
:10077C0088F800509AF8100099F80C10884205D9A6
:10078C000BEB45004578202DC0D1A4E09DF804006A
:10079C00D4E9002100EB800006EB8000891A806808
:1007AC0020F07F42084420F07F40C4E90020012063
:1007BC0002904B4890F82B0018B109B00020BDE80E
:1007CC00F08F0398DDF820806F4690F820502020A1
:1007DC000DF1040A8DF80000202D1CBF424800EBDF
:1007EC00881930D005EB850006EB8000011D806870
:1007FC002268101A0002C21700EB1260001222D4F9
:10080C006089D0B14889C0B9084600F031FC05AA0E
:10081C0004A902F085FC9DF914000028CCBF01202E
:10082C00002000F1330104982268101A0002C2174C
:10083C0000EB12600012884205DB09EB45003D70AD
:10084C004578202DCED138788AF800002746202D07
:10085C001CBF254800EB881B3DD005EB850106EB42
:10086C008109384609F104087A6800E033E0D9F8C8
:10087C000410891A0902CA1701EB126109121DD45E
:10088C00B8F80A1039B3418929BB00F0F1FB05AA6D
:10089C0004A902F045FC9DF914000028CCBF0120EE
:1008AC00002000F133010498D8F80020101A00023F
:1008BC00C21700EB1260001288420CDA8AF8005062
:1008CC0099F81010387B81427FF660AF0BEB450036
:1008DC004578202DC1D1029809B0BDE8F08F0000F9
:1008EC005C0D00205C0A0020DC0C00202DE9F04F90
:1008FC00044647480E4600EB8600464F90F82050C1
:10090C00202083B098469246107007F52079202D50
:10091C0018BF09EB861B31D005EB850007EB800077
:10092C00011D80682268101A0002C21700EB1260C9
:10093C00001223D46089D0B14889C0B9084600F0B0
:10094C0097FB01AA694602F0EBFB9DF90400002815
:10095C00CCBF0120002000F1330100982268101A4E
:10096C000002C21700EB12600012884206DB0BEB90
:10097C0045008AF800504578202DCDD19AF800001A
:10098C0088F80000202D18BF09EB861A3CD005EB27
:10099C00850107EB81096168D9F804202046511ABA
:1009AC000902CA1701EB126109F1040609121BD4E2
:1009BC00718949B3418939BB00F05AFB01AA6946D8
:1009CC0002F0AEFB9DF904000028CCBF01200020F2
:1009DC0000F1330100983268101A0002C21700EBC4
:1009EC001260001288420FDA88F8005099F8100053
:1009FC00217B884203D803B00020BDE8F08F0AEBBE
:100A0C0045004578202DC2D103B00120BDE8F08F00
:100A1C005C0D00205C0A00202DE9F74F4FF0000818
:100A2C0098B016460D46C34602F0FCF80446012D5C
:100A3C0018BF022D05D040F67B114FF0700002F06C
:100A4C0007FFFE4901200860FD4989680860002005
:100A5C000690401E0890FB4906EB860001EB8003D4
:100A6C001B1D09AF0FCB87E80F0009A800F000FB96
:100A7C000790F448BDF82E90B0F81C03ADF8340084
:100A8C00B9F1000F14BF4FF0010A4FF0000A09989A
:100A9C001290BAF1000F09D0EB4890F82C0028B94D
:100AAC0002F072FE002808BF012700D00027E7489B
:100ABC000022149200781646012818BF032843D14F
:100ACC00E248B0F80280A8EB09001490C1453BD273
:100ADC0003A8059017A81090079908F1030042424B
:100AEC00DFF86CC3081A0023BCEB010173EB0301A4
:100AFC0004D240F2F151702002F0AAFED5498A428C
:100B0C0004DD40F2F251702002F0A2FED2498A427A
:100B1C0004DA40F2F351702002F09AFECF49884279
:100B2C00A8BFCF4903DA0028B8BFCC4900DA401877
:100B3C00109A059902F0F4FA0398099920F07F4075
:100B4C000390081A20F07F42002F18BF322604D1E0
:100B5C009DF83400002818BF0226B4F1807F08D01D
:100B6C000998001B0002C11700EB1160001201284C
:100B7C0002DA042018990BE047B1B34890F82D0025
:100B8C0020B19DF83400061C18BF02262146012016
:100B9C00B9F1000F02D0149B1E2B02DA9DF83430F1
:100BAC0013B14FF0010B401E8319A8489DF8356016
:100BBC00007815900998801A20F07F4CACEB01005E
:100BCC0000024FEAE07E00EB1E600012984218DB38
:100BDC00002A18BFCDF824C0099E1097002701F0F9
:100BEC001BFF301A0002C11700EB116000123E28E7
:100BFC003EDA012D1FD0701E109920F07F4011B3EA
:100C0C002CE07AB1002E04BF159803280AD027B91E
:100C1C009DF83400002818BF9B1E00228DF834204C
:100C2C009046C7E707BB9DF83400E8B100208DF86B
:100C3C0034009B1EBEE7B4F1807F20D140F6F40156
:100C4C00702002F005FEB4F1807F07D0211A090252
:100C5C00CA1701EB12610912042903DD044601F0E5
:100C6C00E1FE0CE000290ADD1BB00020BDE8F08F8E
:100C7C00701E20F07F44204601F0D4FE5746B4F19C
:100C8C00807F28D00998DDF828C0001B8BF0010369
:100C9C00744A20F07F40ACEB040C2CF07F4C834268
:100CAC0098BFB0F5800FDFD26245DDD320460BF044
:100CBC00E4F8674A0799531C0E1AB6EB930F24BF3E
:100CCC00A0EB010CBCEB930F10D3B24208D2101A5C
:100CDC000844461C0AE040F61321702002F0B8FDCF
:100CEC0062452CD2511A0844401C46425648807F1B
:100CFC0050B3284645464FF0000BD846012805D086
:100D0C00022002F0D7F8012002F0D4F8A9452CD229
:100D1C00A6EB05014FF001034FF003024FF0020068
:100D2C0002F000F8002808BF4FF00108B9F1000FDD
:100D3C0035D00123A6EB09010322184623E040F627
:100D4C00F321702002F084FDC14534BF4046484673
:100D5C00BBF1000F14BF00211E210844B042C8DBB8
:100D6C0040F62621702002F073FD10D90123A6EB6A
:100D7C0009010322184601F0D5FF28B37DB1711B80
:100D8C0001230322022001F0CDFFE8B107E055EA70
:100D9C00090004D040F65E11702002F059FD0123C9
:100DAC0003223146002001F0BDFF68B10125B8F1E6
:100DBC00000F03D0129809908DF834B0DFF8A8809A
:100DCC00BAF1000F0ED109E0022002F073F80120F5
:100DDC0002F070F81BB00020BDE8F08F1A4890F8B4
:100DEC002D0000B14FB3DFF860A09AF82C0018B1B9
:100DFC0002F074FB8AF82CB0E7B3A4F1320020F0B7
:100E0C007F414FF40020C8F8000000230322052086
:100E1C0001F088FF78B34FF08044052002F02AF9E6
:100E2C001249C1F81005C1F814451149E0120860C7
:100E3C00054C94F82D00E0B35DE01DE00805004082
:100E4C000C0000205C0A00205C0D00200E0000202D
:100E5C00FF7F841E0020A10700E05EF80080841E46
:100E6C0000807BE1FFFF3F0008F5014098F0014056
:100E7C0004F5014005E035E0DFF8B8A09AF82C0045
:100E8C0058B32C4C94F82D0050B14FF40020C8F8F6
:100E9C000000052002F00EF802F088FB84F82DB05B
:100EAC0006AC254894E80E10C0F80013C0F80423D3
:100EBC0000E01CE0C0F80833C0F80CC30AAC94E89E
:100ECC000E10C0F81013C0F81423C0F81833C0F873
:100EDC001CC31BB00120BDE8F08F02F01BFB8AF88D
:100EEC002C5089E74FF45371702002F0B1FC02F0E2
:100EFC004FFB84F82D50A6EB0900A0F11901002935
:100F0C0004DC4FF42561702002F0A2FC03220123C3
:100F1C00104601F007FF38B108488068C0F800B0EF
:100F2C000748C0F800B0BBE740F65B21702002F028
:100F3C008FFC00005C0D00205C0A00200C000020DF
:100F4C000805004010B5154C94F82F00202818BF48
:100F5C0010BD94F82E2004EB820090F8201020296C
:100F6C0017D0DFF83CC00CEB821303EB41035B782A
:100F7C0080F82030012380F8233084F82B3084F85B
:100F8C002F10022000F0B2F8002084F82A00A0777D
:100F9C0010BD40F29931702002F05AFC5C0D00201B
:100FAC00DC0C00202DE9F05FDFF8B48098F82E50AF
:100FBC0008EB850090F82140202C08BFBDE8F09F7D
:100FCC00DFF8A0A0DFF8A090A9F5207B09EB85172E
:100FDC00072617F8140001280ED0042808BF022693
:100FEC000AD005280CBF0326062805D040F6C101FF
:100FFC004FF0700002F02CFCBAF1000F18BFAFF3E9
:10100C000080EFF3108072B607EB44014A7808EBCE
:10101C00850181F8212091F82220A24204BF2022D0
:10102C0081F82220A8B12A462146012000F05EF862
:10103C0004EB840031465BF820202046904798F85A
:10104C002E5008EB850090F82140202CBED1BDE835
:10105C00F09F0648002818BFAFF3008062B6E2E7A5
:10106C005C0D002000000000DC0C002000000000E3
:10107C0010B5044600680AF000FF0146608994F937
:10108C000820DFF854C01044C21C88180023BCEBA5
:10109C00010173EB030104D240F2F151702002F014
:1010AC00D7FB0E498A4204DD40F2F251702002F067
:1010BC00CFFB0B498A4204DA40F2F351702002F064
:1010CC00C7FB08498842A8BF074903DA0028B4BF08
:1010DC00044910BD401810BDFF7F841E0020A107DD
:1010EC0000E05EF80080841E00807BE1DFF854C0D5
:1010FC0010B500230CEB821C07281ED2DFE800F091
:10110C00050505050404040001230CF81100002B4F
:10111C0008BF10BD0C4800EB820292F82200202878
:10112C000EBF82F821100CEB4000417020200CEB1C
:10113C004103587082F8221010BD40F262217020D9
:10114C0002F086FBDC0C00205C0D00202DE9F34F37
:10115C0083B05C48049900EB8100019090F820402A
:10116C0003982546012818BF022805D040F6972180
:10117C004FF0700002F06CFB0027202D4AD0514834
:10118C0000910026807F002808BF022601F044FC55
:10119C00DFF838A104EB84010AEB8101DFF8289118
:1011AC004A688968121A091A22F07F4221F07F419D
:1011BC00964298BFB2F5800F01D2894528D2444A95
:1011CC00009902EB811B22460BEB42014C78202C40
:1011DC0016D004EB84010AEB810CDCF80480DCF8FB
:1011EC0008C0A8EB000828F07F48ACEB000121F008
:1011FC007F41464598BFB8F5800FE4D28945E2D3CC
:10120C00202A05D020210420009BFFF7E9F9044691
:10121C00AC4215D12F48002818BFAFF3008001F065
:10122C00FBFB284C94F8301020290DD0E168821C6F
:10123C00511A0902CA1701EB12610912002903DDC8
:10124C0005B00020BDE8F08F202D0DD02A46039963
:10125C00FFF7E2FB58B3019880F8237084F8305004
:10126C0005B00120BDE8F08F94F82C0018B102F005
:10127C0035F984F82C7094F82D0050B116494FF4C0
:10128C0000200860052001F015FE02F08FF984F8AB
:10129C002D70042001F00EFE01F074FE202084F865
:1012AC0030000E48806807600D480760D8E72A4672
:1012BC0020210420049BFFF793F905B00020BDE822
:1012CC00F08F00005C0D0020FFFF3F005C0A002047
:1012DC00DC0C00200000000008F501400C00002090
:1012EC0008050040064910B591F82F20202A1CBF94
:1012FC00887710BD4FF47E71702002F0A9FA0000BF
:10130C005C0D00202DE9F04F684E074687B096F82B
:10131C002F008A46202859D096F82F0006F10C048D
:10132C0000EB8000A6F5407909EB800820208DF8B1
:10133C00000096F82E0002AA06EB800001A990F896
:10134C002050306905903068384401F0E9FE9DF971
:10135C000800002802DD0198401C0190D8F8080014
:10136C000199642F014436D3514B0020DB1B804183
:10137C0031D3D8F80400081A20F07F40B0F5800F64
:10138C0029D221F07F406060484884F80CA090F886
:10139C002E00EA46202D1CBF464901EB801B4AD08B
:1013AC0005EB850009EB80086068D8F8042021461D
:1013BC00101A0002C21700EB126008F104060012AA
:1013CC0026D4708988B3488948B134E040F66A3134
:1013DC00702002F03DFA07B00120BDE8F08F2046E6
:1013EC00FFF746FE04AA03A901F09AFE9DF910002E
:1013FC000028CCBF0120002000F133010398326893
:10140C00101A0002C21700EB12600012884212DAA6
:10141C008AF8005098F81010207B814206D8059865
:10142C00606007B00220BDE8F08F04E00BEB4500D4
:10143C004578202DB4D1052001F03CFD1B4C4FF01C
:10144C00FF30A06094F82E309DF800202021202A37
:10145C0013BF052004EB830090F82000FFF7C0F8C1
:10146C0094F82E20134901EB821194F82F2001EBF4
:10147C0042014870206838442060012084F82B0019
:10148C00607E012805D12069401E20F07F4001F0CC
:10149C0063FB9DF80000202803D00748407802F039
:1014AC00A7FA07B00020BDE8F08F00005C0D00200B
:1014BC00FF1FA107DC0C00200C0000200246DFF807
:1014CC0054C010B50023BCEB0202084473EB0302BA
:1014DC0004D240F2F151702002F0BAF90E4A914256
:1014EC0004DD40F2F251702002F0B2F90B4A914245
:1014FC0004DA40F2F351702002F0AAF9084988424C
:10150C00A8BF084903DA0028B4BF054910BD40182C
:10151C0010BD0000FF7F841E0020A10700E05EF8D4
:10152C000080841E00807BE1104A0B1A02F1010C32
:10153C00B3EB9C0F3CBF1846704710B5441AB4EB84
:10154C009C0F3CBF184610BD9A4203D2101A084497
:10155C00401C10BDA24204D2511A0844401C404207
:10156C0010BD40F6F321702002F072F9FF7F841E4B
:10157C00074991F83020824204BF4868704700EB5D
:10158C008000044901EB8000001DFFF771BD0000D5
:10159C005C0D00205C0A00200B4910B591F82F005F
:1015AC0020280CD091F82F0091F82F10074A01EB4E
:1015BC00810152F82120BDE810400421104740F66B
:1015CC00A501702002F044F95C0D00205C0A00209B
:1015DC0070B5604E6049012506F5407408287CD230
:1015EC00DFE800F00457889AB23E9FA494F82C00D0
:1015FC0018B901F08FFF84F82C50E08A10B102F07A
:10160C00C3F888B1FFF79EFC84F82950A168B1F1AA
:10161C00FF3F05D001230322052001F083FB40B1DD
:10162C00607E012810D109E040F65D01702002F0C7
:10163C000FF940F66201702002F00AF92069401E91
:10164C0020F07F4001F088FA94F82F0094F82F10C6
:10165C0001EB810156F82120BDE8704001211047B3
:10166C00FFF770FC4FF0FF30A06094F8290058B1E0
:10167C0094F82F0094F82F1001EB810156F82120DB
:10168C00BDE870400621104740F67201702002F050
:10169C00DFF8FFF757FC84F8285002F075F818B102
:1016AC0094F82C0028B108E040F68101702002F07B
:1016BC00CFF801F02FFF84F82C5094F82D0058B17E
:1016CC0026494FF400200860052001F0F3FB01F0DF
:1016DC006DFF002084F82D0000E035E094F82F0019
:1016EC0094F82F1001EB810156F82120BDE87040D1
:1016FC000021104701F090FCE08A10B102F044F890
:10170C0028B117480078032808BF657770BD40F6EC
:10171C008B01702002F09CF8124805608868056007
:10172C0070BD0878BDE8704002F062B9FFF70AFCA2
:10173C0094F82F0094F82F1001EB810156F821201A
:10174C00BDE870400521104740F69D01702002F065
:10175C007FF800005C0A00200C00002008F5014016
:10176C000E00002008050040034810B540780AF030
:10177C0084FB80B210BD00000E0000202DE9F34F59
:10178C00FE4893B088460068FD4DC005C00D0ED0D4
:10179C00103840B20028B8BF00F00F0000F1E02074
:1017AC00ACBF90F8000490F8140D40090DD098F8D7
:1017BC0000004FF0000B002818BF012818D040F291
:1017CC004A714FF0700002F043F895F82F004FF07B
:1017DC00010B202807D098F8000048B140F2467160
:1017EC00702002F035F840F24371702002F030F8AE
:1017FC00E44C24B1002140F24D70AFF300801398FB
:10180C00E14900EB800001EB80004FF001090190F1
:10181C0024B1002140F25570AFF30080B9F1000FF4
:10182C000AD000BF95F82E604FF0000A85F82BA067
:10183C00BBF1000F07D02EE0D448002818BFAFF33F
:10184C00008062B6EEE73746012020EA0706D04852
:10185C00402200EB871100EB86100AF07CFC24B1CF
:10186C00002140F2B550AFF3008005EB870105EB8A
:10187C008600096A016224B1002140F2B950AFF32D
:10188C00008024B1002140F25F70AFF3008095F826
:10189C002B000028BCD124B1002140F26970AFF3B9
:1018AC00008001F0B9F8074698F800008DF8160092
:1018BC0098F80B008DF8150098F80A108DF8141094
:1018CC00B8F80810ADF8121098F800200090D8F86D
:1018DC0004300DF108099AB100224846FEF71EFEAD
:1018EC000797BDF812000FAA0EA901F019FC95F884
:1018FC002F0020280AD02869401D20F07F401EE0D0
:10190C004846D8F80C20FEF709FE4BE00798093042
:10191C000090BDF8120028B101F036FF10B9009804
:10192C00323000909B4841780E98814298BF0098C5
:10193C0003D9091A00980844009020F07F40DDE993
:10194C000221891A0290084420F07F40039031460E
:10195C004846FEF781FE98F80B000090B946B8F89F
:10196C0008100EA8D8F80430D8F80C20FEF7D6FDD5
:10197C000298039AA0EB090020F07F40A2EB090229
:10198C000F9922F07F42B0F5800F01D2914209D21B
:10199C00DDE90221891A781827F07F4220F07F4078
:1019AC00CDE9022024B100214FF4EE60AFF30080AA
:1019BC00774A3946DDF84C9002EB861702A817F8E7
:1019CC001920012A18BF022A3CD1029ADDF80CC05A
:1019DC00A2EB0102704B22F07F42ACEB010121F033
:1019EC007F41022A68D3B2F5800F65D28B4263D354
:1019FC004FF0010A0FAB0EAA3146FEF777FFE8B3A2
:101A0C009DF838109DF83C2033468A4260D0052062
:101A1C00FEF7E6FD07EB490148709DF838002028D9
:101A2C0003BF05EB860080F8209080F823A007EB1D
:101A3C00400018BF80F80190324649465FF0030021
:101A4C00FFF754FB05EB860090F8237024B10021BE
:101A5C0040F27770AFF300805048002818BFAFF306
:101A6C000080EFF3108972B624B1002140F27D7032
:101A7C00AFF3008095F82B00002800E024E07FF401
:101A8C00C7AE24B1002140F28570AFF300800DF198
:101A9C00040EBAF1000F9EE80F1000F1040080E86C
:101AAC000E1041D024B1002140F29270AFF30080AF
:101ABC00BBF1000F2BD115E0324649460420FFF74D
:101ACC0015FB4FF0010ABDE7324649460420B7E743
:101ADC00202919BF07EB4100407805EB860090F8F0
:101AEC00200097E79FB195F82F0020280FD124B143
:101AFC00002140F29770AFF3008031460220FFF7CF
:101B0C0025FB20B998F80000B8B301285DD024B1AA
:101B1C00002140F2B470AFF3008085F82E600120F4
:101B2C0085F82B004FF0010A24B1002140F2BD7062
:101B3C00AFF30080B9F1000F50D024B1002140F276
:101B4C00C170AFF30080BAF1000F11D095F82E00E0
:101B5C0005EB800090F82100202809D024B1002149
:101B6C004FF4F960AFF300800D48407801F040FF6E
:101B7C00D4B1002140F2CD7014E019E004ED00E086
:101B8C005C0D0020000000005C0A0020000000003A
:101B9C00DC0C00200E000020FFFF3F0000000000C6
:101BAC000C000020AFF3008015B05046BDE8F08F5C
:101BBC0024B1002140F29F70AFF3008095F82E20E5
:101BCC0004201399FFF792FAACE7002C3FF420AEF7
:101BDC00002140F2AA70AFF3008019E603480028F8
:101BEC0018BFAFF3008062B6A7E70000000000004A
:101BFC002DE9F04F0546E4488DB00068C005C00DD6
:101C0C0011D0103840B20028B8BF00F00F0000F11E
:101C1C00E020ACBF90F8000490F8140D400908BF08
:101C2C004FF0010B01D04FF0000B287800284FF03B
:101C3C0000001CBF0DB0BDE8F08FDFF85083D44E10
:101C4C004FF00009CDF81800B8F1000F04D00021B6
:101C5C004FF4C860AFF3008096F82E7086F82B9086
:101C6C004FF0000AB8F1000F04D0002140F245609B
:101C7C00AFF30080BBF1000F21D13C46012020EADC
:101C8C000407C448402200EB841100EB87100AF0D3
:101C9C0062FAB8F1000F04D0002140F2B550AFF356
:101CAC00008006EB840106EB8700096A0162B8F13B
:101CBC00000F04D0002140F2B950AFF30080B8F10E
:101CCC00000F04D0002140F24D60AFF3008000F013
:101CDC00A3FE044602A8019028788DF81600E87A35
:101CEC008DF81500A97A8DF814102989ADF8121009
:101CFC002A7800906B689AB100220198FEF70EFCCE
:101D0C000094BDF8120008AA07A901F009FA96F888
:101D1C002F00202809D03069401D20F07F401DE0A5
:101D2C00EA680198FEF7FAFB46E00098093000904B
:101D3C00BDF8120028B101F027FD10B9009832301F
:101D4C000090954807994078884298BF009803D92D
:101D5C00411A00980844009020F07F40DDE90221F0
:101D6C00891A0290084420F07F400390394601986C
:101D7C00FEF772FC0194E87A0090298908A86B6838
:101D8C00EA68FEF7CBFBDDE90130039AC01AD21AE0
:101D9C0020F07F40099922F07F42B0F5800F01D2EC
:101DAC00914209D2DDE90221891A601824F07F42A0
:101DBC0020F07F40CDE90220B8F1000F04D00021C3
:101DCC0040F25360AFF3008096F82F00202814D017
:101DDC0030690299091A0902CA1701EB126109123A
:101DEC000BD5DDE90221891A20F07F42084420F04E
:101DFC007F40CDE902204FF0010AB8F1000F09D065
:101E0C00002140F25D60AFF30080002140F263607E
:101E1C00AFF300800299039A091B121B5F4821F053
:101E2C007F4122F07F42B1F5800F05D2904203D35F
:101E3C00BBF1000F0BD104E04F46BBF1000F3AD0C1
:101E4C0098E0394602A8FEF707FC4AEA000ABAF104
:101E5C00000F24D002980AF010F80146BDF81200C9
:101E6C009DF91020DFF838C11044C01C0A1800245A
:101E7C00BCEB010174EB090146D34A4988425EDC94
:101E8C004942884263DB0CF101008242A8BF4648FC
:101E9C0003DA002AB8BF454800DA1218EA604FF09E
:101EAC0001000690B8F1000F64D0002140F276607A
:101EBC00AFF300805EE0BDF8120001AA694601F0A4
:101ECC002FF996F82F00202823D03069401D20F0E0
:101EDC007F4000BFDDE90221891A014421F07F41D6
:101EEC00CDE9020109F0C9FFBDF812109DF91020CF
:101EFC00DFF8ACC01144CA1C01460023BCEB010145
:101F0C00104473EB070117D240F2F151702001F02D
:101F1C009FFCBDF81200093420B101F035FC0028FB
:101F2C0008BF32341C4800994078884284BF401A5C
:101F3C00044424F07F40CDE71A498A4204DD40F284
:101F4C00F251702001F084FC19498A4204DA40F203
:101F5C00F351702001F07CFC14498842A8BF12494F
:101F6C0003DA0028B8BF114900DA4018E8604FF0D6
:101F7C000100069096F82B0000287FF465AE0698B9
:101F8C000DB0BDE8F08F000004ED00E00000000093
:101F9C005C0D0020DC0C00200E000020FFFF3F0039
:101FAC00FF7F841E0020A10700807BE10080841E3F
:101FBC0000E05EF82DE9F14F804D8CB095F82E00C5
:101FCC000020099001207E4C4FF00008A5F18007FD
:101FDC008346089024B1002140F2DC70AFF30080FE
:101FEC00089890B385F82B8024B1002140F2E17061
:101FFC00AFF3008095F82E9040222BEA090607EBF0
:10200C00861007EB891182460AF0A5F824B100214D
:10201C0040F2B550AFF3008005EB860005EB89016B
:10202C000090096A016224B1002140F2B950AFF36B
:10203C00008095F82B0080B1002C1CBF002140F2D1
:10204C00E770C7D0AFF30080C4E7FFE75D48002816
:10205C0018BFAFF3008062B6C4E724B1002140F290
:10206C00EB70AFF300800C981AF81000032878D1AD
:10207C00DDF80090CDF818900C9999F82000884262
:10208C0014BF4FF0000A4FF0010A09F1200C8646EC
:10209C00202207EB861303E0024603EB4200407854
:1020AC00884202D020280AD0F6E7202807D086459F
:1020BC0007D103EB4E0040788CF8000007E0404657
:1020CC000CE003EB400003EB42014078487024B174
:1020DC00002140F23A50AFF30080584610EA0A0F44
:1020EC0018BF89F823B0E0B324B100214FF4FE608F
:1020FC00AFF30080324601200C99FEF7F7FF0698EB
:10210C0090F8239024B1002140F2FB70AFF30080D3
:10211C002D48002818BFAFF30080EFF3108072B683
:10212C00089024B100214FF40060AFF3008095F8C3
:10213C002B0038B1002C1CBF002140F604003FF4EA
:10214C0049AF7FE7B9F1000F08D095F82F00202890
:10215C0004D131460220FEF7F9FFF8B134B1002169
:10216C0000E009E040F61800AFF3008085F82E601F
:10217C0085F82BB00120099024B1002140F62100F4
:10218C00AFF30080089888B124B1002140F62500F7
:10219C00AFF3008009980DB0BDE8F08F002CF1D0A2
:1021AC00002140F61300AFF30080E6E70548002855
:1021BC0018BFAFF3008062B6E6E700005C0D0020AC
:1021CC0000000000000000000000000010B52028F6
:1021DC0011D20E4991F82E30A1F1800202EB831C32
:1021EC001CF810303BB191F82E3002EB831212F830
:1021FC001020012A01D0002010BD91F82E2001469C
:10220C000020FEF773FF012010BD00005C0D0020C4
:10221C002DE9F05F7E4E804696F82E00A6F18007E1
:10222C0007EB801010F81800002865D096F82E9057
:10223C00784D25B1002140F6B330AFF3008007EBA9
:10224C00891414F81800012818D0C0B204281CBF37
:10225C000528062855D02DB14FF0000140F6BF30AF
:10226C00AFF3008001F01AFC25B1002140F6C33019
:10227C00AFF3008014F818000128E6D1012425B131
:10228C00002140F6CA30AFF30080A4B3002086F8DA
:10229C002B0025B1002140F6CF30AFF3008096F82B
:1022AC002EB0012020EA0B0907EB8B1107EB8910EC
:1022BC00402209F050FF25B1002140F2B550AFF398
:1022CC00008006EB8B0006EB890A006ACAF8200036
:1022DC0025B1002140F2B950AFF3008096F82B00E5
:1022EC00E0B1002D1CBF002140F6D530C7D000BF97
:1022FC00AFF30080C3E70AE040F6AA31702001F08A
:10230C00A7FA4A4641460120FEF7F0FEACE74248E8
:10231C00002818BFAFF3008062B6B7E725B10021E3
:10232C0040F6D930AFF300809AF821300AF1210140
:10233C0040461C464FF0200B07EB89120AF1220A8B
:10234C0004E0A34602EB4B0C9CF80140844202D003
:10235C00202C2BD0F5E7202C28D0A34204D102EB63
:10236C0043004078087005E002EB440002EB4B019F
:10237C0040784870BAF1000F11D025B1002140F21D
:10238C003250AFF300809AF80000A04207D125B17B
:10239C00002140F23550AFF300808AF800B05DB1F7
:1023AC00002140F23A50AFF3008000E025B100214B
:1023BC0040F6DD30AFF300801848002818BFAFF3AB
:1023CC000080EFF3108472B696F82B0038B1002D14
:1023DC001CBF002140F6E3303FF451AF88E786F88C
:1023EC002E90012086F82B0054B1002D08BFBDE8BB
:1023FC00F09F00214FF43F60AFF30080BDE8F09FE9
:10240C000548002818BFAFF3008062B6EDE7000066
:10241C005C0D002000000000000000000000000027
:10242C0070B5054601F09EF90D4890F82E20002459
:10243C00803800EB821000BF10F8141029B1611C19
:10244C00CCB2202CF8D3202070BD064904EB8400BC
:10245C0041F8205021460120FEF748FE204670BD71
:10246C005C0D00205C0A00202DE9F04F83B000F0D9
:10247C00D3FA054600F086FD604CA068B0F1FF3F32
:10248C001CBF4FF0FF30A060A07FDFF874B1A8B97B
:10249C00D4E90301081A0002C11700EB1160001205
:1024AC004FF40C7109F016FD21690844281A00023A
:1024BC00C11700EB11600012C00F0BD0607EC0B1D1
:1024CC0000F0B6FB94F82A00C8B140F24E417020DF
:1024DC0001F0BEF994F82F0094F82F1001EB810154
:1024EC005BF821200821904740F23D41702001F01B
:1024FC00AFF9E81C20F07F4000F094FAE2E74FF0CF
:10250C00010A84F82AA094F82F00202824D094F8EB
:10251C002F80202084F82F0084F83000002684F8C7
:10252C00286084F82960374826600078022816BF96
:10253C00032801200020207794F82E7004EB8709E3
:10254C0099F82000202830D000EB80000BEB8000A5
:10255C00817C012905D028E040F25141702001F026
:10256C0077F9AB46051DC08901AA694600F0D8FD74
:10257C0094F82F00202804D02069401D20F07F40C3
:10258C000BE068890BF1090B28B101F0FDF800286C
:10259C0008BF0BF1320B2BF07F40D5E90021891AD3
:1025AC002860084420F07F40686039460120FEF71F
:1025BC00CDFD0028F9D0144800EB871010F8180056
:1025CC00022804D13A4641460620FEF78FFD84F8D6
:1025DC002BA099F82100202803D00C48407801F05A
:1025EC0007FA207F002804BF03B0BDE8F08F00F08D
:1025FC0013FD2677667703B0BDE8F08F5C0D0020E5
:10260C005C0A00200E000020DC0C00200C000020D6
:10261C0030B5304C83B094F82F10202908D0A16825
:10262C00B1F1FF3F09D04FF42D61702001F010F98A
:10263C0040F6CF21702001F00BF96168DFF898C0EB
:10264C000B180022BCEB010172EB020104D240F228
:10265C00F151702001F0FCF82049884204DD40F271
:10266C00F251702001F0F4F81D49884204DA40F26E
:10267C00F351702001F0ECF81A488342A8BF1A48B5
:10268C0003DA002BB8BF174800DA1B18184601AA4A
:10269C00694600F045FD9DF904000F28CCBF0120D0
:1026AC0000200099084420F07F41A16094F8290093
:1026BC00002804BF03B030BD01230322052000F025
:1026CC0031FB00281CBF03B030BD40F6D821702070
:1026DC0001F0BEF85C0D0020FF7F841E0020A107D6
:1026EC0000E05EF80080841E00807BE170B51E4C1B
:1026FC00202184F8201084F8211084F82210002066
:10270C0084F8230084F82E0084F82F10421EA26057
:10271C002060A07784F8280084F82900207760775F
:10272C0084F83010114984F82C0084F82D000870BE
:10273C0048704880A4F182011022887001F8040FBF
:10274C00521EFAD10A4D012684F82A60FF20287007
:10275C00084801F02FF9687001F08AF9A86000F0C0
:10276C00A3FC84F8316070BD5C0D00200E000020CD
:10277C000C000020B10F000070B504461546084649
:10278C0009F07BFB0F4A011B02F1010CB1EB9C0F12
:10279C0024BF231AB3EB9C0F0BD38A4203D2111B19
:1027AC000844411C05E09A4207D2101A2044401CF0
:1027BC00414201F10F00281A70BD40F6F321702040
:1027CC0001F046F8FF7F841E2DE9F041384CD4F817
:1027DC000403DFF8E08010F4803F4FF400664FF004
:1027EC00E0274FF000051CBFD4F84001002817D09B
:1027FC00C4F84051C7F880622F480068D8F8001020
:10280C00A0EB010020F07F40022802D3B0F5800F2E
:10281C0006D34FF48030C4F808030420FEF7D8FE2A
:10282C00D4F8040310F4003F1CBFD4F84401002872
:10283C0017D0C4F84451C7F8806220480068D8F813
:10284C000010A0EB010020F07F40022802D3B0F56D
:10285C00800F06D34FF40030C4F808030520FEF7B0
:10286C00B7FED4F8040310F4802F1ABFD4F8480133
:10287C000028BDE8F081C4F84851C7F880621048C0
:10288C000068D8F80010A0EB010020F07F4002286F
:10289C0004D3B0F5800F38BFBDE8F0814FF4802031
:1028AC00C4F80803BDE8F0410620FEF791BE000015
:1028BC0000B0004004B5004040B5004044B50040B5
:1028CC0048B500402DE9F0413A4D287804286CD0E9
:1028DC00E81C0122017859B1012908BF6A7002D0A5
:1028EC00697800295CD002210170407800F0E2FA8E
:1028FC00314CD4F804034FF0000810F4002F4FF4BF
:10290C0080764FF0E0271CBFD4F84C01002808D08B
:10291C004FF0030000F0CEFAC7F880620320FEF7F8
:10292C0057FED4F8040310F4802F1CBFD4F84801D0
:10293C00002808D04FF0020000F0BCFAC7F8806203
:10294C000220FEF745FED4F8040310F4003F1CBF30
:10295C00D4F84401002808D04FF0010000F0AAFA86
:10296C00C7F880620120FEF733FED4F8040310F49C
:10297C00803F1ABFD4F840010028BDE8F0814FF029
:10298C00000000F097FAC7F8806204202870C5F8A0
:10299C000880C4F80082BDE8F0410020FEF718BEA4
:1029AC0040F2C7316C2000F053FFBDE8F041072026
:1029BC00FEF70EBE1800002000800040012213021A
:1029CC004FF0E0210020C1F8803101F5C071BFF358
:1029DC004F8FBFF36F8FC1F800310C494A60431E13
:1029EC00C1F808330A4B1860C1F840011B1D186070
:1029FC00C1F844011B1D1860C1F848011B1D18606B
:102A0C00C1F84C010A6103494870704700800040CE
:102A1C004085004018000020014800687047000005
:102A2C0004B500402DE9F05F414E0446F71E96F8C0
:102A3C0000C0F868BCF1010F04BFA042BDE8F09FD4
:102A4C004FF040413B4A11603B496FF48023C1F881
:102A5C0008333A4A4FF00005BCF1000F57D06FF421
:102A6C00A023C1F848331560C1F84451D1F848216E
:102A7C004FF0E0294FF00108002A04BF4FF4006228
:102A8C00C9F880224FF48033C1F80833C1F84833B9
:102A9C00C1F840512A4AD2F800A0A4EB0A0A2AF045
:102AAC007F4BBBF1020F3CD34FF0020ABBF5800FFA
:102ABC0037D2C1F84045C1F84433BCF1000F05D002
:102ACC001168411A21F07F410229F9D3C7F8088017
:102ADC003D70FFF773FF1B480560001DC0F800A098
:102AEC001949042008601949C1F80C80BA68C1F86A
:102AFC0000228101C9F88012C9F80011144A41075B
:102B0C001160FC60707086F80080BDE8F09FC1F821
:102B1C004833104B1D60C1F840511560C1F8445149
:102B2C00A4E7C1F8405540F2EB116C2000F090FE88
:102B3C001B00002008F5014000B0004044B50040E7
:102B4C0004B5004004850040108500400080004022
:102B5C0004F5014040B500402DE9F0412B4CE168F3
:102B6C00814214BF01220022DFF8A4C09CF800703F
:102B7C00022F02D0002A38D003E0002A08BFBDE89B
:102B8C00F081627882B3234B4FF080421A60224B63
:102B9C009513C3F80853C3F848530026C3F8406193
:102BAC001E4AD2F80080A0EB080828F07F48B8F144
:102BBC00020F24D3B8F5800F21D2C3F84005C3F817
:102BCC0044532FB11368CB1A23F07F43022BF9D354
:102BDC00134B02214A071A60E06004208CF80100B4
:102BEC008CF80010BDE8F08104E040F2F9116C2083
:102BFC0000F02EFE40F2FD116C2000F029FEC3F80F
:102C0C00406540F209216C2000F022FE18000020E3
:102C1C001B00002008F5014000B0004004B5004046
:102C2C0004F501400148C0687047000018000020FE
:102C3C002DE9F04133486FF48024C0F80843DFF8E5
:102C4C00C8C0324A00219CF8003063B16FF4A02454
:102C5C00C0F848431160C0F8441100BFD0F84801D7
:102C6C00012280B909E0C0F84843294C2160C0F822
:102C7C0040111160C0F84411F0E74FF0E0244FF41C
:102C8C000060C4F88002022B04D040F215216C20A5
:102C9C0000F0DEFD1F4E30681F4CC01C20F07F4042
:102CAC00E3681E4D98420BD03768DF1B27F07F4737
:102CBC00042F05D3B7F5800F02D2FFF7B3FE1BE04C
:102CCC003068181A20F07F40022813D3B0F5800F1B
:102CDC0010D2134B4FF080401860A26021706A60D4
:102CEC00EA604000191F086004208CF801008CF881
:102CFC00002001E0A2602170A068C5F80002BDE8C8
:102D0C00F081000000B000401B00002044B50040E2
:102D1C0040B5004004B50040180000200080004081
:102D2C0008F501402DE9F047DFF874C101274FF099
:102D3C0000089CF800509CF801C007287ED2DFE800
:102D4C0000F0040404046A6A6A00564CE668B6F1A2
:102D5C00807F04BF6478002C02D0022D05D03CE0AB
:102D6C004FF412716C2000F073FD4FEA8C0404F1E7
:102D7C008046ACF104042406A40D04F1804906F548
:102D8C00004609F530490024012D02D0022D11D046
:102D9C0020E0BCF1040F05D2D6F840A1BAF1000F27
:102DAC0018D104E0D9F840A1BAF1000F12D14FF0BC
:102DBC0000440FE0BCF1040F05D2D6F840A1BAF1E3
:102DCC00000F07D104E0D9F840A1BAF1000F01D1EE
:102DDC0044F0804414F0804FD5D1334C00F1100CEA
:102DEC0007FA0CFCC4F808C38000204452B10764F5
:102DFC00D0F840658D1B25F07F45AA4298BFB5F5EC
:102E0C00800F43D2C0F84015012B08BFC4F804C38F
:102E1C000120BDE8F08735B1844504D140F26B2127
:102E2C006C2000F015FD001FC0B2012B0CBF01245B
:102E3C000024032806D340F2451100E02BE06C205F
:102E4C0000F006FDDFF864C000F1100307FA03F38D
:102E5C00CCF80833CCF8483380006044C0F840818B
:102E6C004AB1134D2E688D1B25F07F45AA4298BFA1
:102E7C00B5F5800F0AD2C0F84015002C18BFCCF85D
:102E8C000433CCF844330120BDE8F087C0F840850A
:102E9C000020BDE8F0874FF41C716C2000F0D8FCCA
:102EAC001B000020180000200080004000B00040F3
:102EBC0004B50040F8B50127002407284CD2DFE800
:102ECC0000F00404040416161600264A00F1100142
:102EDC0007FA01F1C2F8081381001144C1F840450A
:102EEC00C1F84041204951F820000090F8BD1F4D19
:102EFC00011FCEB2297879B16A7882420CD11C4A72
:102F0C004FF040401060012908BFFFF757FD2C70AF
:102F1C0018494FF08070C86006F1100007FA00F1F4
:102F2C001548C0F80813C0F84813B00000F18040F1
:102F3C0000F53040D0F84015104A1268891A21F07B
:102F4C007F41022924BFC0F84045C0F840410C48DD
:102F5C0050F826000090F8BD40F2E9216C2000F0FA
:102F6C0077FC000000800040408100401B000020E6
:102F7C0008F501401800002000B0004004B50040E6
:102F8C0040B100401E496FF48023C1F808331D483E
:102F9C001D4A90F800C00020BCF1000F0AD06FF45D
:102FAC00A023C1F848331060C1F84401D1F848118E
:102FBC0081B909E0C1F84833144B1860C1F84001DD
:102FCC001060C1F84401F1E74FF0E0224FF40061CA
:102FDC00C2F880120E494FF0FF32C1F808230D4A97
:102FEC001060C1F84001121D1060C1F84401121D9F
:102FFC001060C1F84801121D1060C1F84C017047F7
:10300C0000B000401B00002044B5004040B500401B
:10301C000080004040850040084890F902000028DC
:10302C00B8BF704700F01F01012202FA01F14009FC
:10303C00800000F1E020C0F800127047180000205A
:10304C0010B507280DD2DFE800F0040404040606CE
:10305C000600064902E0001F0549C0B201EB8000E2
:10306C0010BD4FF425716C2000F0F2FB4081004044
:10307C0040B1004010B507280DD2DFE800F0040481
:10308C00040406060600064902E0001F0549C0B20A
:10309C0001EB800010BD4FF425716C2000F0D8FBC3
:1030AC004081004040B1004070B519480024042113
:1030BC000470C01E01708905C160FFF77FFC0125FB
:1030CC004FF0E02CEB02CCF88031BFF34F8FBFF305
:1030DC006F8FCCF880320F4A556095600E480168AE
:1030EC000029FCD1481EC2F80803C2F848030B485B
:1030FC000460C2F84041001D0460C2F84441001D48
:10310C000460C2F84841CCF80031156070BD000075
:10311C001B00002000B0004004B5004040B500404A
:10312C00430B48F2376C03FB0CF31B0C4FEA432C9C
:10313C00C1F800C0DFF838C003FB0C030D484CF29B
:10314C00F72C5843400D10FB0CFC0CEB432303F500
:10315C0080735B1213700B681844086010781F287A
:10316C0018BF7047002010700868401C086070473A
:10317C00F7C2FFFF6F0C01002DE9F041164C607A8D
:10318C00002827D04FF480718D05284608F0C6FE24
:10319C0080464FF48271284608F0C0FE0026074690
:1031AC00B8F1000F09D00120C5F80803207920B12F
:1031BC002671E06908B18047E66137B1C5F8046152
:1031CC000220C5F8080300F08BFA4046BDE8F04138
:1031DC0000F05AB8BDE8F0812800002010B508F0C6
:1031EC0047FF30B908F065FF18B908F098FF0028C0
:1031FC0002D002490220086010BD0000340C0040CF
:10320C0070B500F087F900F0BFFA094C4FF080451B
:10321C0030B1FFF7E3FF012028610420A07204E025
:10322C000320A0720120C5F804030020E07170BDDA
:10323C002800002070B5134CA079F0B1012803D000
:10324C00E179401E814218DA00F09EFA054600F042
:10325C006FFBA179012902D9E179491CE1710DB10A
:10326C00616900E02169411A022902DA11F1020FA9
:10327C0007DC0DB1606100E02061BDE87040FFF734
:10328C00BFBF70BD280000202DE9F04706464FF067
:10329C0080454FF48671284608F040FE80464FF476
:1032AC008871284608F03AFE274C8246277804F1AC
:1032BC00080008F0A7FE10B14FF4D57116E04FF0DE
:1032CC00010946B1A07A032805D10420A072FFF7AA
:1032DC0085FFC5F810900026B8F1000F18D0C5F87E
:1032EC000C61A07A042804D04FF4DE716D2000F03C
:1032FC00AFFA08F0BDFE28B908F0DBFE10B908F0F3
:10330C000EFF08B1114806600220A07200F0E6F82A
:10331C00BAF1000F08D0C5F81061A07A022801D1CB
:10332C00FFF788FFC5F814903FB12670A07A0228E9
:10333C0001D1FFF765FF00F0D1F8BDE8F047024876
:10334C00083008F076BE000028000020340C004045
:10335C002DE9F0475C4C4FF000080646C4F8188085
:10336C00437882780078E07263710127A271BD07FF
:10337C0084F80780052824D2DFE800F00F03051F2E
:10338C002100A76109E000F0C5F80121284608F0EA
:10339C00CAFD0028F9D00220A06108F0F0FDB0B100
:1033AC0000F00CFA217E01F0030188420FD1B079B4
:1033BC0050B10220C5F804036AE04448ECE74448E5
:1033CC00EAE74FF44C7149E000F0CCF960E0EF60B3
:1033DC004FF4827AC5F80481A069C5F8180508F085
:1033EC0033FE40B908F03AFE28B908F04EFE10B989
:1033FC0008F05FFE38B14FF080513648D1F84412D6
:10340C00C1F34231016008F01FFE40B908F026FEFE
:10341C0028B908F03AFE10B908F04BFE10B12D484F
:10342C0010300760AF600220C5F80403B07978BB98
:10343C00D5F8040310F0020F0ED0DFF89C90D9F8E9
:10344C000010C94341F30017D9F8001041F01001E6
:10345C00C9F800107F1C07E040F2F1216D2000F04C
:10346C00F7F900BF00F01AFB5146284608F056FD4C
:10347C000028F7D000F076F92FB9D9F8001021F018
:10348C001001C9F800100220C5F80803C5F8048122
:10349C00A07970B1307860B900F076F9064600F08A
:1034AC0047FA6FF0004216B1C4E9042001E0C4E908
:1034BC0004020121284608F036FD08B100F05EF93F
:1034CC0084F80A80BDE8F087280000200100020083
:1034DC00010003003C05004010ED00E010B5EFF3D7
:1034EC00108472B60A48417829B14178491E41705E
:1034FC00417829B108E040F20D116D2000F0A8F9D7
:10350C00807808B900F04EF9002C00D162B610BDDD
:10351C002800002010B5EFF3108472B606484178ED
:10352C00491C41704078012801D108F013FD002C92
:10353C0000D162B610BD000028000020054810B56F
:10354C00C17821B100210171C170FFF7C7FF0020C4
:10355C0010BD00002800002070B50C4CE17861B95A
:10356C000125E570E061FFF7D5FF00F00DF930B1F2
:10357C00E06910B180470020E061002070BD4FF081
:10358C0080402571C0F80453F7E7000028000020A4
:10359C00EFF3108072B604498A78521C8A700028A6
:1035AC0000D162B6704700002800002010B5EFF380
:1035BC00108472B60A48817829B18178491E8170CD
:1035CC00417829B108E040F225116D2000F040F956
:1035DC00807808B900F0E6F8002C00D162B610BD76
:1035EC00280000202DE9F04104006FF015003CD0BC
:1035FC002178042939D80029617838D0002934D1B0
:10360C00A178002931D1002008F053FC002008F0EB
:10361C0043FC4FF080484FF0FF31C8F808130026E8
:10362C00C8F80061C8F80461C8F80C61C8F81061EA
:10363C00144F7E70A088B88108F083FC012508B176
:10364C00FD707D700121404608F06DFC08B100F062
:10365C0095F82046FFF77CFE7D72002008F01CFCDC
:10366C004FF0E0213046C1F80051BDE8F08100294F
:10367C00FBD02029F9D8A1782129F6D80129C2D16B
:10368C00F3E7000028000020014880897047000003
:10369C002800002010B50D4808F0B4FC0B4908397F
:1036AC0048B1012008704FF0E021C1F80002BDE8DC
:1036BC001040FFF72FBF887A022801D1FFF7A0FD39
:1036CC00BDE81040014808F0B4BC000030000020F8
:1036DC000248807A002800D0012070472800002082
:1036EC00F8B51F4DE87A00280FD1287E00F00300B2
:1036FC0008F035FC002808D0EFF3108172B6FFF704
:10370C00E7FF18B1002900D162B6F8BD0126AE72F0
:10371C0001B962B618204FF08044C4F80803A661C2
:10372C004FF42070ADF80000BDF80000411EADF85C
:10373C000010F9D20027C4F80C71C4F810710848B5
:10374C00083008F072FC2F70FFF75AFD666168793B
:10375C0000F07F00C4F838051820C4F80403F8BD45
:10376C002800002010B5044C207E00F0030008F067
:10377C00F6FB0028F8D010BD2800002001490120DC
:10378C0008707047880200204FF08040D0F800018C
:10379C0018B903480078002800D0012070470000B9
:1037AC00880200204FF08040012141600021C0F8C8
:1037BC00001101480170704788020020024800681F
:1037CC0000F00300704700001C04004010B531B13C
:1037DC00012907D04FF4427105A000F00FF8D0F882
:1037EC00140401E0D0F8080400F0010010BD000042
:1037FC006E72665F636C6F636B2E6800024A526870
:10380C0002B11047FEE7000048000020064810B542
:10381C000021016001210160084608F0C7FBBDE8EA
:10382C001040012008F0B5BBFC1F0040074810B544
:10383C0001214160891EC0F808130C2008F0B6FB6A
:10384C00BDE810400C2008F0A4BB000000C00040F4
:10385C00FEB5104A5568E5B1002203466E460A24AF
:10386C0003E0B0FBF4F0521CD2B20028F9D1B054F2
:10387C000AE000BFB3FBF4F004FB1030B3FBF4F32D
:10388C00521ED2B23030B054002AF3D13046A84781
:10389C00FEBDFEE74800002070B5174C06460D46ED
:1038AC00607810B14FF0FF3070BD06B9134E6260F6
:1038BC002570FFF7ABFFFFF7B9FF3046FFF792FE1D
:1038CC000600F1D1FEF712FFFFF70AFF08F03CFAF1
:1038DC00284608F05EFB0120002D09DB05F01F01D6
:1038EC0000FA01F16A09920002F1E022C2F800111B
:1038FC006070304670BD000048000020DABF000048
:10390C00014840787047000048000020074890F9B3
:10391C000000002809DB00F01F0201219140400942
:10392C00800000F1E020C0F8001270474800002031
:10393C002DE9F04101264FF0E02231034FF0000851
:10394C004046C2F88011BFF34F8FBFF36F8F164CF8
:10395C00C4F800010C2008F048FB144D2868C04343
:10396C0040F30017286840F010002860C4F8046386
:10397C0026607F1C02E000BF00F090F8D4F8000134
:10398C000028F9D01FB9286820F0100028600848DA
:10399C0005686660C4F80863C4F800810C2008F060
:1039AC0024FB2846BDE8F08100C0004010ED00E08B
:1039BC0008C5004010B5024605200C4904E000BFC4
:1039CC0001EBC0031B7933B1401EC0B2F8D24B21BE
:1039DC006920FFF73DFF41F8302001EBC0010022C8
:1039EC004A718A7101220A7110BD0000900D0020ED
:1039FC0010B5052801D35A2106E00A4901EBC00095
:103A0C000179012903D05B216920FFF721FF41795E
:103A1C008279491CC9B28A4200D04171BDE810407C
:103A2C00FFF774BF900D002070B505250E4E0F4C9E
:103A3C0016E0217806EBC1000279012A08D14279FF
:103A4C0083799A4204D04279827156F831008047CA
:103A5C002078401CC0B22070052801D300202070B3
:103A6C006D1EEDB2E5D270BD900D002089020020D4
:103A7C0000B508F0E9FA40B908F0F0FA28B908F0F6
:103A8C0004FB10B908F015FB08B1024800BD024850
:103A9C0000BD00000C05004000E7014010B508F027
:103AAC0008FB30B3EFF31080C8B1002172B6124896
:103ABC0002680368C2F3001243F0100303604FF076
:103ACC00E023D3F80042D3F804321C4300D040BFAB
:103ADC0020BF00BF00BF00BF00BF12B105E0012135
:103AEC00E4E7026822F010020260002900D062B6FE
:103AFC0010BD20BF10BD000010ED00E047C300005A
:103B0C0035C3000041C300002FC300002DC30000CB
:103B1C002BC300004DC300003BC3000025C30000B5
:103B2C001DC3000021C3000017C30000014800683A
:103B3C00C068004750000020014A126852681047C4
:103B4C0050000020014800688068004750000020A9
:103B5C00014A126812681047500000200149096898
:103B6C00C9690847500000200148007870470000E0
:103B7C008A02002001490870704700008A02002068
:103B8C001FB5174CA079022800D202208DF8010035
:103B9C006079032800D203208DF800002079ADF85D
:103BAC000400E078ADF80200684606F0AFFA08B100
:103BBC009F2110E0A068029002A806F0BDFA08B19F
:103BCC00A32108E007480068039003A80BF033F921
:103BDC00002803D0A721032000F0BAF81FBD000075
:103BEC005C000020343E000010B528B114220449BA
:103BFC0008F0B1FA002010BD6FF0150010BD0000E8
:103C0C00663E000010B56FF02C0440BB154B987845
:103C1C0008B1A01110BDC9B132B106291FD2DFE81D
:103C2C0001F01E06090C10136FF0150010BD107872
:103C3C0018720BE01078587208E01068C3F80B008B
:103C4C0004E01068186101E01078987205490122AF
:103C5C000831002008F076FBB0F5803FE6DB20460B
:103C6C0010BD00005400002038B50D46040020D0D3
:103C7C00FDB100F027F9F8B12046FFF79BFE104C80
:103C8C00002204F108012070284608F05BFB0BF0C1
:103C9C00ABFC0021207806F0C9FC60788DF80000A0
:103CAC0068460BF0BCF8FFF76BFF0120A0700020FA
:103CBC0038BD6FF0150038BD4FF0FF3038BD000037
:103CCC005400002070B504000BD0FFF719FE4FF024
:103CDC00FF3520B1FFF7D8FCB0F5FA7F04D92846A0
:103CEC0070BD6FF0150070BD0022144B114600BF63
:103CFC0033F82150854203D303EB8100827803E033
:103D0C00491CC9B20C29F3D30D48427044600D48CC
:103D1C0000F0EAF9EFF3108472B60B486FF00C0167
:103D2C0000F018FD094800F0D9FD18B1B5210320A9
:103D3C0000F00EF804B962B6002070BD363E0000EB
:103D4C00540000208D3B000000C00040FD3E0000F0
:103D5C000EB572B6154A5568D5B1002203466E46AB
:103D6C000A2403E0B0FBF4F0521CD2B20028F9D1C3
:103D7C00B05409E0B3FBF4F004FB1030B3FBF4F3E4
:103D8C00521ED2B23030B054002AF3D13046A8477C
:103D9C00BFF34F8F06480168064A01F4E0611143F6
:103DAC000160BFF34F8F00BFFDE7000054000020FF
:103DBC000CED00E00400FA05054810B5807810B150
:103DCC004FF0FF3010BD06F051FC002010BD00007C
:103DDC0054000020054810B5807810B14FF0FF302A
:103DEC0010BD06F0C1F9002010BD000054000020E9
:103DFC00054810B5807810B14FF0FF3010BD0BF0B6
:103E0C0068F9002010BD000054000020054810B5D2
:103E1C00807810B14FF0FF3010BD06F039FC002057
:103E2C0010BD000054000020010001000B00020036
:103E3C000A00050009000A000800140007001E0013
:103E4C000600320005004B000400640003009600DD
:103E5C000200FA000100F4010000EF03099C7996BE
:103E6C00B67DCC089DB2CF0FDA3C97CE0D78000012
:103E7C00054A10B5526812B1BDE8104010478321B5
:103E8C000420FFF765FF0000B80D0020054A10B5AF
:103E9C00126812B1BDE8104010477D210420FFF7D5
:103EAC0057FF0000B80D0020054A10B5926812B1FA
:103EBC00BDE81040104789210420FFF749FF00009E
:103ECC00B80D00200548016829B1416819B1806816
:103EDC0008B101207047002070470000B80D002089
:103EEC0002490DC881E80D0000207047B80D002074
:103EFC00F8B5124C0026256811E00098022802D073
:103F0C0003280CD106E0206810B10020266005E0E3
:103F1C0028210CE0206868B101202660A84768467B
:103F2C0000F0AEFC0028E8D0052805D0352104208F
:103F3C00FFF70EFF2D21FAE7F8BD00006800002006
:103F4C007CB5214D0646287848B1AC78691CA41C78
:103F5C002246304608F0FFF80020287024E01A486A
:103F6C00443806F059F900281FD0174C443C2078EF
:103F7C00112804D10A213E2008F080FA18B12078CB
:103F8C00082806D00AE010493046443908F07FFC76
:103F9C0009E005213E2008F071FA38B10A49304693
:103FAC00443908F0C9FA044620467CBDA088ADF817
:103FBC00000001A9684608F084FD18B1972108207B
:103FCC00FFF7C6FE0024EFE79C0E002070B50A78C0
:103FDC0082703AB3012A25D81323037000230AE018
:103FEC0001EB430400EB4305A678EE706488240AC9
:103FFC005B1C2C71DBB29342F2D300230BE000BFAD
:10400C0001EB430500EB43042E796671AD882D0A54
:10401C005B1CA571DBB29342F2D3012101EB820050
:10402C00C0B270BD002070BD01210C4A40280CD2DA
:10403C00202803D8401E8140106802E021388140BE
:10404C005068014207D100207047FF2803D0403848
:10405C0081409068F5E70120704700006C0000205B
:10406C000121401E81400448C068014201D001205A
:10407C0070470020704700006C0000200149006868
:10408C00C86070476C00002004490268406842F424
:10409C008C220A60024A1043486070476C00002072
:1040AC00F807400201490068886070476C000020E6
:1040BC0005484FF0FF310160C90C4160002181605F
:1040CC001F21C160704700006C00002010B5FFF785
:1040DC00EFFF0AF075FF04460248006800B1804704
:1040EC00204610BD7C00002001490860704700008C
:1040FC007C00002002210180418000210171EF2110
:10410C00417140F60311C180014981600020704764
:10411C009C7996B610B5022804D340F26B11172087
:10412C00FFF716FE0149085C10BD0000C40D00200D
:10413C00F8B505460090914201D2144600E00C46B9
:10414C0055B10027E81C20F00300A84206D040F22D
:10415C003F111720FFF7FCFD0127F3E7124E6846CD
:10416C0031707270394600F0EDF80020034600996A
:10417C00C91C21F00301009167B906EB8002D160E4
:10418C00002105E0D2F80CC04CF82130491CC9B212
:10419C00A142F7D30099401C01EB8401C0B20091FD
:1041AC000228E4D3481BF8BDC40D002070B50446AA
:1041BC0009F043F808B1102070BD257800F0FEF826
:1041CC0002460C48618800EB85000EE0C36853F88A
:1041DC00213043B14A1C6280A180C06850F8210094
:1041EC00A060002070BD491C89B29142EED3618061
:1041FC00052070BDC40D00202DE9F04121B101292D
:10420C0002D00020BDE8F0810F4C00273B464FF652
:10421C00FF7604EB810514F801C00AE0DC19D5F82F
:10422C000CE0A4B25EF824E0BEF1000F04D05B1CDD
:10423C009BB29C45F2D8344604802046B442E0D070
:10424C00BDE8F04100F034B8C40D00202DE9F04178
:10425C000646A0F57F400C4643F20207FF3820D0FB
:10426C00022C02D30720BDE8F081304600F05AF84A
:10427C00050016D00C48294650F8242030469047AB
:10428C000A48002100EB8407F86840F82610204605
:10429C0000F08AF802462946786808F045FF0020AD
:1042AC00E1E73846DFE70000E8430000C40D0020DA
:1042BC002DE9F04190460D46074608F079FF48B1CC
:1042CC00164800EB8506F06850F8270028B140F23C
:1042DC00091115E04FF4847112E0706800281AD0AF
:1042EC00284600F061F80146706808F0CFFE040023
:1042FC0010D0F068022D40F8274004D34FF48A7197
:10430C001720FFF725FD06484246214650F8253078
:10431C00384698472046BDE8F0810000C40D0020C7
:10432C00E043000070B50C46054608F041FF00283C
:10433C0005D0034800EB8400C06850F8250070BD20
:10434C00C40D00202DE9F843164E8846054600247E
:10435C002868C01C20F003002860204600F024F8D8
:10436C00315D4843B8F1000F01D0002200E02A680B
:10437C000146009232B100274FEA0D0008F0B3FE5F
:10438C001FB106E001270020F8E706EB8401009A34
:10439C004A602968641C0844E4B22860022CD7D314
:1043AC00BDE8F883C40D0020034931F810004FF626
:1043BC00FC71C01C08407047DC43000003480178C6
:1043CC004078814200D3084670470000C40D00209D
:1043DC001002DC00D1D10000D1D10000ABE600000E
:1043EC0043DF00002DE9FF4F264C804681B020684A
:1043FC009A46934658B1027A424503D9416851F81E
:10440C00280040B143F2020005B0BDE8F08FA521B1
:10441C001820FFF79DFC1946029808F0EBFE86B2B7
:10442C0058460E9908F0DDFE85B27019001D87B252
:10443C002068A1463946006808F028FE04001FD009
:10444C00678025802946201D0E9D07465A4601236C
:10445C00009508F07AFD2088314638440123029AF1
:10446C00CDF800A008F071FD2088C119384608F07D
:10447C009DFDD9F800004168002041F82840C3E7B1
:10448C000420C1E78000002070B5144C23688BB168
:10449C00197A814212D95A6852F8201071B100254C
:1044AC0042F820504A88186808F03EFE2168002027
:1044BC000A7A0CE0C8211820FFF74AFC43F20200EC
:1044CC0070BD4B6853F8203033B9401CC0B28242E7
:1044DC00F7D8086808F01DFE002070BD8000002091
:1044EC002DE9F0410D46040090464FF0000609D02E
:1044FC000027E01C20F00300A04205D086211820E4
:10450C00FFF726FC0127F4E7CDB11146002008F097
:10451C00EAFD0C3000EB85068FB90A4F04F10C0054
:10452C00AA003C602572606000EB850020600021D1
:10453C00606807F08AFE4146386808F0D4FD3046C2
:10454C00BDE8F0818000002070B5084D2868002877
:10455C000AD0002404E02046FFF796FF641CE4B266
:10456C002868007AA042F6D870BD000080000020B8
:10457C00094910B502460968002049B10B7A9342EB
:10458C0005D9496851F82210002900D0081D10BD2A
:10459C00EE211820FFF7DCFB800000200A4910B543
:1045AC0002460968002059B10B7A934207D9496831
:1045BC0051F82210002902D031F8040B084410BD28
:1045CC00FC211820FFF7C4FB8000002010B5044626
:1045DC000120FFF79FFD844206D2044904EB8400BE
:1045EC00096801EB401010BD002010BD84000020B4
:1045FC0073B5009858B100264FEA0D0001EB81010C
:10460C0049010C4608F06FFD05461EB10DE0012670
:10461C000020F3E72146009808F038FD06490860B1
:10462C0028B12246002107F010FE28467CBD1E2131
:10463C000920FFF78DFB00008400002010B501203D
:10464C00FFF768FD00EB8000420103480021006881
:10465C00BDE8104007F0F9BD84000020094910B5F1
:10466C0007480860084B112003EBC0040022C4F873
:10467C001025C4F81425401CC0B21428F4D310BD66
:10468C000000FEFF08F5014000F0014070B5202449
:10469C000021012320FA01F2D20720D04AB2002ACD
:1046AC0010DB00BF4FEA52164FEA860602F01F05D8
:1046BC0006F1E02603FA05F5C6F88051BFF34F8FDB
:1046CC00BFF36F8F0BDB02F01F054FEA52124FEA5C
:1046DC00820202F1E02203FA05F5C2F8805201F1E0
:1046EC000101A142D6D370BD70B542004FF000015C
:1046FC0001D5144A1160C0F38032C0F3C0339A4222
:10470C0003D064211B20FFF723FB10F4404F14D07F
:10471C000D4A01205060831EC2F808330B4A90608A
:10472C00C2F80012C2F80833094C2160251D28601C
:10473C009060C2F8083321602860BDE87040FFF734
:10474C008DBF000004E5014000E0004000F0004097
:10475C0000F5004070B50A4C0D462060FFF7C4FF11
:10476C002068FFF793FF00F077F8FFF777FF08F06A
:10477C0059FD284600F0AAF8BDE8704000F0C2B818
:10478C00880000202DE9FC5F2F4E83463068019095
:10479C0001272E4807F036FCDFF8B08020B900273F
:1047AC0008F1010007F045FC294C00254FF00309E6
:1047BC0001206060C4F80051C4F80451C6F800B080
:1047CC002060DFF890A017E0DAF80000C00613D5DF
:1047DC000E2008F018FDEFF31080009072B6C4F8AC
:1047EC000493D4F8000120B9D4F8040108B9FFF7F8
:1047FC0055F9009800B962B6D4F8000118B9D4F88C
:10480C0004010028E0D0D4F804010028D0D137B13D
:10481C000198306008F1010007F0F4FB11E008F199
:10482C00010007F0EFFB0028BAD1C4F80893C4F8D4
:10483C000451C4F800510E2008F0E5FC034807F0C1
:10484C00F8FB0020BDE8FC9F04E500408B02002033
:10485C0000E0004010ED00E010B5084807F0E5FB63
:10486C0008B1242106E00548401C07F0DEFB0028B7
:10487C0003D028211D20FFF76BFA10BD8B020020FE
:10488C0070B511490A68EAB100231D4601244A6833
:10489C00521C4A60092A00D34D600E7904FA06F2C4
:1048AC000E6816420BD0EFF3108372B60C6894436B
:1048BC000C6003B962B649680160002070BD5B1CD6
:1048CC00092BE4D3052070BD8C0000200248002188
:1048DC0001604160704700008C00002010B5084C4E
:1048EC00617809B10F2010BDFFF764F82070FF2824
:1048FC0001D0002010BD76211F20FFF729FA0000FF
:10490C00940000200149002048707047940000205A
:10491C000648074A818C5288914204D190F82200B3
:10492C0008B1002070470120704700009E0F002046
:10493C00780200200149488070470000780200206E
:10494C000848094A818C5288914209D14FF6FF716F
:10495C00818410F8221F19B10021017001207047C9
:10496C00002070479E0F002078020020074810F8A6
:10497C00221F012907D00121017005480349008835
:10498C008884012070470020704700009E0F002093
:10499C00780200200649074B8A8C5B889A4205D125
:1049AC0091F8222012B1016001207047002070475D
:1049BC009E0F00207802002009498A8CA2F57F43C3
:1049CC00FF3B02D00021016007E091F8222004494E
:1049DC00012A02D0016001207047002070470000BE
:1049EC009E0F0020014908807047000078020020CB
:1049FC000549002081F822004FF6FF708884034996
:104A0C0008804880704700009E0F0020780200202C
:104A1C0005498A8C824205D1002081F822004FF68C
:104A2C00FF708884704700009E0F00200A4A10B166
:104A3C00012807D00EE0507860B1D2F8020008606F
:104A4C00D08804E0107828B190680860908988803C
:104A5C0001207047002070478D020020084A012376
:104A6C0038B1012804D1137008689060888890814F
:104A7C00704753700868C2F802008888D08070476D
:104A8C008D020020064910B1012802D005E04878BB
:104A9C0000E0087808B10120704700207047000042
:104AAC008D02002001494874704700004A0A00201A
:104ABC000148C07870470000B00000200148007920
:104ACC0070470000B000002078B513494A7C0AB347
:104ADC000A7C8DF80020009A00929DF80020CAB143
:104AEC00002301F110021A24A1F152050E7C8DF85D
:104AFC000060009E00969DF800604EB113704370EC
:104B0C000470D5F85A604660D5F85E608660EDE7B3
:104B1C00012078BD002078BD4A0A002070B50C46F3
:104B2C00054600F031F918B1AB212720FFF710F939
:104B3C000348012108F05EFF0248C571C46270BDD4
:104B4C00280A0020B000002001490120887170471C
:104B5C00B00000202DE9F0414C4D86B02E780C9C15
:104B6C00002E74D1002A72D0002B70D0002C6ED085
:104B7C0005F11407C5E90E0187E81C00AE716E71D2
:104B8C00EE70AE702E71AE81EE8100F035F90746F5
:104B9C0000F02CF9044606F01BFA05F0F5FE94F92A
:104BAC006A0006F09DFA04F1160006F087FB04F18A
:104BBC00120006F077FB387F06F09AFB05F13800FF
:104BCC00406890F86C0108B106F052F994F867103F
:104BDC00012006F07DF8002850D0B046012006F0E8
:104BEC0087F914222A49684607F0B5FA684606F098
:104BFC00EBF82088FFF7D2FC28632088FFF7B8FC7D
:104C0C00686307F15800234E0FC806F1080C8CE8B6
:104C1C000F00B86EC6F82100F86EC6F82500FF200C
:104C2C006872628F218F94F86730F87C08F06EFB05
:104C3C00F97C01B104210844C0B22872B4F85010B8
:104C4C00091D814205D24FF4B5711CE0FFE7D42158
:104C5C0019E04546012000F049FB0F480068032885
:104C6C000FD00B280DD046F8525F75600948B988F3
:104C7C005230418021880180397F017106B0BDE836
:104C8C00F0814FF4BD712720FFF762F8B0000020CF
:104C9C0044550000F8090020501500402DE9F0475C
:104CAC00064600F0A9F8334D0446686A47780EB101
:104CBC00012E03D1696B07F0B9FB687068784FF06F
:104CCC0000084FF0010950B101281AD0022834D045
:104CDC00032849D040F2CD312720FFF739F8012EB7
:104CEC0032D000F0F3F839460122686B07F0C2FFAE
:104CFC0028E000BF84F8088031E000BF84F80890F9
:104D0C002DE0012E08D000F0E1F839460022686B46
:104D1C0007F0B0FF022E0BD0D4E91401401C41F176
:104D2C000001C4E91401207A012803D084F808900A
:104D3C00BDE8F08784F80880FAE7012E04D0686B90
:104D4C0008F09EF9022EF3D0D4E91401401C41F175
:104D5C000001C4E91401207A0128CFD1CAE7E8790F
:104D6C00BDE8F047FEF744BE012EE1D0686B08F0B9
:104D7C0087F9F4E7B00000200248C089C0F3802016
:104D8C0070470000B00000200448007808B10C20E7
:104D9C00704703490020487470470000B0000020A1
:104DAC004A0A00200C4810B5017849B100F13801CD
:104DBC000078022808D04FF4CB712720FEF7C8FFEB
:104DCC00BDE8104000F0A8B94868D0F80001BDE873
:104DDC00104006F001B80000B0000020024A938990
:104DEC000343938152691047B0000020014840688A
:104DFC0070470000E80000200148406870307047A0
:104E0C00E8000020014A002152691047B000002040
:104E1C0070B5FFF7F1FF0446FFF7E8FF05462146A2
:104E2C0008F009FC95F82410012917D1002815D099
:104E3C000B4842682888A2F8EE01607A82F8F001EB
:104E4C00A07A82F8F10102F5F67201201070044884
:104E5C003838C079BDE87040FEF7CABD70BD00009F
:104E6C00E800002070B5184C054639B9012D05D164
:104E7C00E078401CC0B2E070012818D8A16928461F
:104E8C008847A0B1607990B9E5B90F481030017826
:104E9C00C80605D4E06A0078C00601D4012000E001
:104EAC000020A26A2AB962891AB1C90601D401206C
:104EBC0070BDA1898A0703D5226AD278022A01D053
:104ECC000843F4D1002070BDB000002010B5084C90
:104EDC00A06A38B16289616AD21C07F03CF9A06AF9
:104EEC00606210BD40F214412720FEF731FF000034
:104EFC00B000002010B5FFF779FF0446FFF77CFFE8
:104F0C000146427B1548242A0ED0897B24290BD0DC
:104F1C001F2A0DD0202A0BD022290FD094F866001E
:104F2C00042800D1082010BD406890F88E110EE0C6
:104F3C00222903D0406890F8A80105E0416891F857
:104F4C00A80191F85F10084008F0C8F9014694F8E0
:104F5C006600BDE8104008F0ECB90000E800002045
:104F6C002DE9F84388460646FFF746FF454C0027D7
:104F7C0005468DF800702078022804D040F2664176
:104F8C002720FEF7E5FEA07B400606D44020FFF765
:104F9C0039FFE08940F04000E0813B48EEB34179B5
:104FAC00491C4171E87C05F067FD05F04BFD68B9C3
:104FBC00E87C58B1606A417841B10078297AC0F335
:104FCC00C000884202D10120A07043E0606A4178A1
:104FDC00618121B1606B08F020F8A06200E0A7624B
:104FEC00E08940F48070E081E770606AE9790078CC
:104FFC00C0F38000884205D000F02AF9E08940F423
:10500C008060E081606A297A0078C0F3C000884231
:10501C000FD1684600F0D8F80BE0FFE78179491C06
:10502C008171E87C08B105F021FDE08940F4007045
:10503C00E081B8F1000F04D131460120FFF712FFD7
:10504C0060B19DF8000010B10020FFF727FE0EB1F3
:10505C00FFF7DEFE00F060F8BDE8F8839DF8000075
:10506C0010B10120FFF71AFE002000F091F99DF815
:10507C00000010B10220FFF711FE002EECD0FFF75C
:10508C00C7FEE9E7B00000204A0A00202DE9F041F4
:10509C000E468046FFF7B0FE1E4D044628780128C8
:1050AC0004D040F223412720FEF752FE60780127FE
:1050BC0030B10020607001460420FFF78FFEE770CE
:1050CC00296A0878C043800709D1A079D0B9022099
:1050DC00FFF784FE286A0078C043800712D0286A44
:1050EC00407810B10220A07100E0A77136EA0806E2
:1050FC0004D001210020FFF7B5FE28B1BDE8F04136
:10510C0000F00AB80320EEE7BDE8F041002000F003
:10511C00EDB80000B000002010B505F045FD05F01D
:10512C0033FC0D4CE089FFF76DFEE2696179A078E4
:10513C0090470A48407C60B10848523850F8521FDA
:10514C0081604168C160054801210174E079FEF776
:10515C004FFC0020207010BDB00000204A0A002037
:10516C00084810B50078022804D04FF4E5712720C8
:10517C00FEF7EEFD04490120C871BDE81040FFF7B1
:10518C00CBBF0000B00000204A0A002030B40D4B09
:10519C004AB91A7A5C7AA24205D190F8672090F845
:1051AC006640A2420BD031B11A7A90F8671030BC2D
:1051BC00104606F08BB85A7A90F86610F7E730BCB8
:1051CC0070470000B00000202DE9F0410746FFF7C2
:1051DC0013FE04461D4800260125416A0A7802F098
:1051EC000302012A15D0022A13D0032A03D04179D5
:1051FC0041F0040124E06570C28942F40062C2816E
:10520C000120FFF7EBFD1DE02672BDE8F081257251
:10521C00FBE74978B1B1C28942F40062C281826A6B
:10522C00002AF2D0FB2908D8807920B1BDE8F041E2
:10523C002020FFF7E7BD3D70E7E7417941F0100111
:10524C004171E2E7207A0128E1D1DDE7B0000020CE
:10525C0070B5FFF7D1FD0446807900282FD00228C5
:10526C000ED11C4D286B07F0DEFC48B3D4E91201BB
:10527C00401C41F10001C4E91201E879FEF7B8FBCA
:10528C000025A571E07820B1E57000211020FFF712
:10529C00A5FDA07870B1A570FFF752FB98B1002165
:1052AC000820FFF79BFDD4E91201401C41F10001DD
:1052BC00C4E91201E07901280AD00120E07170BD27
:1052CC004FF45A7101E04FF460712720FEF740FD56
:1052DC00E57170BDB000002003480078002801D0B3
:1052EC00FFF71ABF70470000B00000202DE9F0470F
:1052FC008146FFF77BFD0446FFF77EFD0746628F74
:10530C00218F94F86730C07C08F000F81D4D0646DC
:10531C004A46E86A686201212046FFF737FFF87CAD
:10532C004FF00008B8B1184805F0E0FE174801210D
:10533C000176D7E91412C0E90412134A696A05F020
:10534C0013FB94F8670007F0D3FF024631460120A7
:10535C0005F038FB04E0686A05F0C8FE05F014FBA4
:10536C00B9F1000F02D1404605F05AFD002194F826
:10537C0066300122084605F043FF02202870BDE884
:10538C00F0870000B0000020F8080020000A002080
:10539C002DE9FC470446FFF72FFD0646FFF726FDD7
:1053AC000546DFF8889122460021FFF7EFFEB07921
:1053BC0001274FF00008A9F1200440B1012828D0A2
:1053CC00022839D0032845D04FF41D7161E0FFF756
:1053DC0091FD0146A88E08F098F8298E814200D2E2
:1053EC0008464C21ADF8040048534846FFF7D2FA62
:1053FC0028B18020216AFFF7F1FCB7702EE06A46D5
:10540C0001A9206B07F09FFF206210B196F83B10AA
:10541C0011B14748206221E09DF8001031B9A0F885
:10542C00008080F80280012108F0E4FABDF8041035
:10543C00206A08F0A3FA11E0B5F84C00ADF80400AE
:10544C006A4601A9206B07F07EFF206230B940F25A
:10545C0065211EE04846FFF79DFAC0B1206A08237B
:10546C00017821F008010170F27903EAC2021143BC
:10547C0021F004010170327A042303EA8202114301
:10548C0021F010010170C943890705D007E040F2F3
:10549C006E212720FEF75CFCC07802280FD0206B11
:1054AC0007F0E6FC08B101210AE0206A0078C0434D
:1054BC00800704D0FFF72CFA80F0010100E00021F6
:1054CC00206A027842EA01110170B17CD1B14178B5
:1054DC00C1B1184805F00AFE1548283880F8188024
:1054EC00D6E91212C0E904121249226A05F03CFAFC
:1054FC0095F8660007F0FCFE0246FB21002005F043
:10550C0061FA03E005F0F2FD05F03EFA012295F890
:10551C0067301146002005F073FE2771206A018860
:10552C0021828078A0742770BDE8FC87D000002011
:10553C00280A0020F80800206D5100006D4F000073
:10554C0099500000E552000041710000004870477E
:10555C000512002004498A78824203D9084490F845
:10556C0043017047002070473210002004498A78AC
:10557C00824203D901EB0010833070470020704742
:10558C0032100020054A01EB410102EB4101026897
:10559C00C1F80B218088A1F80F0170473210002050
:1055AC002DE9F0410E46074615460621304608F017
:1055BC00CBF80D4C60B1002004E02118401C81F8A0
:1055CC003B51C0B2A1788142F7D80120BDE8F081EF
:1055DC003146384607F0C6FE082803D0204480F830
:1055EC003B51F2E70020F1E73210002004498A78A1
:1055FC00824203D901EB0010C01C70470020704799
:10560C003210002010B540F2D3120021084806F0E9
:10561C001CFE0822FF21074806F017FE0548002152
:10562C00001F017041704FF46171418010BD00008A
:10563C0032100020800200200149087070470000E1
:10564C007C02002001480078704700007C0200209A
:10565C000B4B10B59C7884420FD9184490F8030179
:10566C0003EBC00090F853310B70D0F8541111605B
:10567C00B0F858019080012010BD002010BD000032
:10568C003210002007498A78824209D9084490F8E0
:10569C00030101EBC00090F85A0100F001007047C3
:1056AC0000207047321000202DE9F04798469146B3
:1056BC000C46054600F038F90646102806D000F0D6
:1056CC0003F9102802D01220BDE8F087184FB878E3
:1056DC0008282AD2102E05D100222146284600F097
:1056EC0007F90646BC781022601CB87007EB04154D
:1056FC00E81C494607F092FF05F183001022414651
:10570C0007F08CFF1021404608F01EF83C44102195
:10571C0084F84301484604F5967408F015F8E077D0
:10572C0004F8296C0020E073CEE70720CCE70000DA
:10573C0032100020064810B58078401E44B204E0B8
:10574C00E0B200F039F9641E64B2002CF8DA10BD36
:10575C003210002001484088704700007C02002075
:10576C0038B14AF2B811884203D803494880012065
:10577C0070470020704700007C02002005498A78A1
:10578C00824203D9084490F83B0108B100207047CD
:10579C00012070473210002070B50D46064600F00F
:1057AC00C3F8104C102807D004EBC00191F85A1123
:1057BC00C90701D0012070BD6178082910D21028CA
:1057CC0008D004EBC000012180F85A116078401C0D
:1057DC006070EFE701222946304600F089F8F5E7C2
:1057EC00002070BD3210002070B50B4D2878401E83
:1057FC0044B20AE005EBC40090F85A01C00702D08D
:10580C00E0B200F021F9641E64B2002CF2DA034914
:10581C000020487070BD0000321000207C02002077
:10582C002DE9F04100242546184E29E006EBC5076A
:10583C0097F85A01C00721D0284600F045F80346D6
:10584C00FFF7D4FE01460020102B09D0F21892F875
:10585C003BC1BCF1010F02D092F84B2102B10120E7
:10586C00401E01420AD10A4807F5AA710355204689
:10587C00641C97F85321E4B205F038FE6D1CEDB2B0
:10588C003078A842D2D8BDE8F08100003210002058
:10589C008002002070B50A4B1B7873B1094B9C78C1
:1058AC005CB1451821460AB1D81C01E0054883308B
:1058BC002A4604F07BFF012070BD002070BD000063
:1058CC007C02002032100020084910B5034600204D
:1058DC008A7806E00C1894F803419C4204D0401CD2
:1058EC00C0B28242F6D8102010BD00003210002049
:1058FC0070B50C4B04461878451C1D70102803D34A
:10590C0046212820FEF724FA03EBC0030D68C3F8E8
:10591C0054518988A3F8581183F8534183F85A21BC
:10592C0070BD0000321000202DE9F0410F460646F4
:10593C0000240D4D0FE000BF05EBC40090F853118F
:10594C00B14206D10622394600F5AA7006F0F1FBE9
:10595C0038B1641CE4B22878A042EDD81020BDE820
:10596C00F0812046FBE700003210002070B50546A0
:10597C00FFF7AAFF10281CD10E4C2078401EC0B295
:10598C002070A84215D004EBC00204EBC50102F54F
:10599C008070D2F85321C1F85321D0F85700C1F8C8
:1059AC0057012078FFF790FF102802D0204480F890
:1059BC00035170BD321000202DE9F047214C0646F2
:1059CC00A719A078401EC5B2A57097F80381AE4206
:1059DC002AD004EB051A04EB06190AF1030109F1AC
:1059EC000300102206F0B7FB0AF1830109F18300D2
:1059FC00102206F0B0FB601905EB450290F803117C
:105A0C0087F8031106EB460104EB420204EB41015B
:105A1C00D2F80B31C1F80B31B2F80F21A1F80F21DC
:105A2C0090F83B0187F83B0104EBC80090F85A0151
:105A3C00C00704D14046BDE8F047FFF797BFBDE86B
:105A4C00F08700003210002005494A78521E4A7037
:105A5C0001EBC001002281F85A21FFF787BF00003B
:105A6C0032100020F0B56FF01F02010C02EA9026F4
:105A7C001F25A1F5AA4054380DD0A1F5AA405538E0
:105A8C0009D0A1F52850AA3805D0A1F52A40AA388A
:105A9C0001D0012000E00020002213464FEA02044E
:105AAC0082EA0107FF431F437F1C0FD006F001075A
:105ABC00520842EAC73205F001075B0876086D0808
:105ACC00641C43EAC733162CEAD3F0BD0020F0BDAA
