:10100000408F00208D80010059D4020061800100D2
:10101000618001006180010061800100000000002A
:101020000000000000000000000000005D790100E9
:101030006180010000000000097901006180010069
:101040000D7A0100830603000D7A01000D7A01007C
:101050000D7A01000D7A01000D7A01000D7A010070
:10106000310603000D7A01000D7A010069060300C4
:101070000D7A01000D7A01000D7A01000D7A010050
:101080000D7A01000D7A01000D7A01000D7A010040
:101090000D7A01000D7A01000D7A01000D7A010030
:1010A0000D7A01000D7A01000D7A01000D7A010020
:1010B0000D7A01000D7A01000D7A01000D7A010010
:1010C0000D7A01000D7A01000D7A01000D7A010000
:1010D0000D7A01000D7A01000D7A01000D7A0100F0
:1010E0000D7A01000D7A01000D7A01000D7A0100E0
:1010F0000D7A01000D7A01000D7A01000D7A0100D0
:1011000053B94AB9002908BF00281CBF4FF0FF316E
:101110004FF0FF3000F00CB8ADF1080C6DE904CED3
:101120000CF08EFDDDF804E0DDE9022304B0704729
:10113000704700BF2DE9F00791E8F807B2E8021008
:101140005B1854EB0C04B2E802104D4156EB0C0650
:10115000B2E802104F4158EB0C08B2E8021059EB0C
:1011600001095AEB0C0A80E8F80780410130BDE81C
:10117000F00770472DE9F00791E8F807B2E8021090
:101180005B1A74EB0C04B2E802108D4176EB0C068E
:10119000B2E802108F4178EB0C08B2E8021079EB4C
:1011A00001097AEB0C0A80E8F80780414042BDE86B
:1011B000F00770472DE9F007524290E87800B1E857
:1011C00080071740DB1918EA020854EB080419EAF3
:1011D000020955EB09051AEA020A56EB0A0678C01D
:1011E00090E87800B1E8800717407B4118EA0208D0
:1011F00054EB080419EA020955EB09051AEA020A38
:1012000056EB0A0678C080410130BDE8F007704710
:101210002DE9F007524290E87800B1E880071740C6
:10122000DB1B18EA020874EB080419EA020975EBE3
:1012300009051AEA020A76EB0A0678C090E87800F7
:10124000B1E880071740BB4118EA020874EB0804B4
:1012500019EA020975EB09051AEA020A76EB0A0691
:1012600078C080414042BDE8F00770472DE9F001A9
:1012700052424FF0040890E8300091E8C000A31BF0
:101280001340E41AF618EB1B1340ED1AFF1830C098
:10129000C0C1B8F10108EED1BDE8F001704700BF50
:1012A00000B592E8DC072DE9DC07B1E8805702B40D
:1012B000A7FB02510A95A8FB020BE7FB6310E9FBB1
:1012C00062B00B91A8FB0351EAFB6201E7FB64B536
:1012D000E7FB6605E8FB6615CDF830B0A9FB03B661
:1012E000EAFB6316ECFB6356E8FB640BE9FB641B4B
:1012F000EAFB645BECFB646B0D90ACFB0230059C7D
:10130000EEFB6250E9FB6460EAFB64B0E7FB64312A
:10131000E8FB6451069CE8FB6461E9FB64B1EAFB0D
:1013200064010E93A7FB0432079CE7FB6462E8FBB1
:1013300064B2E9FB6402EAFB6412049CE9FB6453B7
:10134000EAFB6463089CE7FB64B3E8FB6403E9FB26
:101350006413EAFB64230F955DF8049B99E800068B
:10136000DDF80080A9FB0854EAFB68B4DDF81080C2
:10137000ECFB6804EEFB6814E9FB6824EAFB6834C4
:10138000DDF80480EEFB6865E9FB68B5EAFB6805FB
:10139000DDF81480ECFB6815EEFB6825E9FB683589
:1013A000EAFB68450F96DDF80880AEFB0876E9FB9E
:1013B0006806EAFB6816DDF81880ECFB6826EEFB91
:1013C0006836E9FB6846EAFB6856DDF80C80ECFB02
:1013D00068B7EEFB6807E9FB6817EAFB6827DDF8EA
:1013E0001C80ECFB6837EEFB6847E9FB6857EAFBBB
:1013F000686708B000BD00BF2DE9F14F87B0FFF767
:101400004FFFDDF81C8008F1200888E8FF00FFBCD2
:1014100087E87F08BDE8F08F00B591E89857A3FBF7
:1014200003520195A3FB0401E3FB6420E3FB671077
:101430000292A3FB0752E3FB6802E4FB6415E3FBA3
:101440006805E3FB69250391A4FB07B6E3FB692666
:10145000E3FB6A56E4FB670BE4FB682BE3FB6A5B88
:10146000E3FB6C6B0490A4FB0810E4FB6950E3FB06
:101470006C60E3FB6EB0E7FB6721E4FB6951E4FBC2
:101480006A61E3FB6EB1E4FB6E010592A7FB0832D3
:10149000E4FB6A62E4FB6CB2E4FB6E02E7FB6E12F3
:1014A000E7FB6853E7FB6963E4FB6CB3E7FB6C03A2
:1014B000E7FB6E13E8FB6E230695A7FB0954E7FBD9
:1014C0006AB4E7FB6C04E8FB6C14E8FB6E24E9FBF0
:1014D0006E34E8FB6865E7FB6AB5E8FB6A05E8FB84
:1014E0006C15E9FB6C25E9FB6E35EAFB6E4507964A
:1014F000A8FB0976E8FB6A06E9FB6A16E9FB6C269D
:10150000EAFB6C36EAFB6E46ECFB6E56E8FB69B70D
:10151000E9FB6907E9FB6A17EAFB6A27EAFB6C3714
:10152000ECFB6C47ECFB6E57EEFB6E6700BD00BF3B
:101530002DE9F14F87B0FFF76FFFDDF81C8008F150
:10154000200888E8FF00FFBC87E87F08BDE8F08F2F
:1015500030B44FF0000310F8014B11F8015B013A71
:1015600084EA050443EA0403F5D1A3F101034FEA39
:10157000D37030BC704700BF4FF0000310F8012B50
:10158000013943EA0203F9D1A3F101034FEAD37011
:10159000704700BF30B411F8014B12F8015B6C408A
:1015A00000F8014B013BF6D130BC70472DE9F00744
:1015B00091E8F807B2E802105B1854EB0C04B2E8AB
:1015C00002104D4156EB0C06B2E802104F4158EBA9
:1015D0000C08B2E8021059EB01095AEB0C0A8941D8
:1015E000B3F1FF3374F1FF3475F1FF3576F1000686
:1015F00077F1000778F1000879F101097AF1FF3AF3
:1016000051F100015B184C414D4156F1000657F174
:10161000000758F1000859EBD1795AEB010A80E82C
:10162000F807BDE8F00770472DE9F00791E8F807E3
:10163000B2E802105B1A74EB0C04B2E802108D41A0
:1016400076EB0C06B2E802108F4178EB0C08B2E89A
:10165000021079EB01097AEB0C0A89415B184C41C5
:101660004D4156F1000657F1000758F1000859EBBB
:10167000D1795AEB010A80E8F807BDE8F007704716
:1016800018EB040859EB05095AEB060A5BEB070B4C
:101690005FF0000C4CF1000C18EB050859EB060943
:1016A0005AEB070A5BEB070B50EB0C005FF0000CEA
:1016B00051EB0C0152EB0C0263414CF1000CB8EB06
:1016C000070879F100097AF1000A7BEB040BA841C5
:1016D000B141A241B3416CF1000CBBEB050BB04131
:1016E000B941AA41BB416CF1000C4CF001068CF0F1
:1016F000020718EB060859EB6C095AEB6C0A7BEBF6
:101700006C0B70EB6C0471EB6C0572EB670653EBC2
:101710006C076CEB6C0C18EB0C0059EB0C015AEBE2
:101720000C025BF1000354F1000455F1000556EB87
:10173000DC7657EB0C0770472DE9F14F87B0FFF7C8
:10174000AFFDDDF81080DDF81490DDF818A0FFF78C
:1017500097FFBDE8000FFFF793FF03B05DF8048B20
:1017600088E8FF00BDE8F08F2DE9F14F87B0FFF763
:1017700053FEDDF81080DDF81490DDF818A0FFF7B7
:101780007FFFBDE8000FFFF77BFF03B05DF8048B20
:1017900088E8FF00BDE8F08F1FB5144C207A8DF863
:1017A0000100E0798DF80000A079ADF804006079BF
:1017B000ADF80200684606F067FD08B1AD2110E003
:1017C000E068029002A806F075FD08B1B12108E0BA
:1017D00007480068039003A80FF068FC002803D0B6
:1017E000B521032000F01AF91FBD0000F8120020F7
:1017F000081B00002DE9F041164F04461646F87804
:101800000D4678B1287C68B120682522C01C20F0E4
:1018100003002060297C06B1002000F09DFD2168B6
:1018200008442060287D002812D0F87800280FD0C6
:10183000287C00280CD02068C01D20F00700206004
:10184000297D06B1002002F0ABFD2168084420602C
:10185000BDE8F0814000002010B528B114220449F1
:1018600010F07EFB002010BD6FF0150010BD0000D1
:10187000301B000070B56FF02C0588BB234C6078DE
:1018800008B1A81170BDF9B16FF01500002AF9D0A8
:101890001F4B092934D2DFE801F033053308183330
:1018A0001B332400107818701FE091780029E9D0CC
:1018B000D1780029E6D011781B29E3D351781B2970
:1018C000E0D31068C3F805000FE01068D8600CE0A2
:1018D000E17811B111780229D4D31078187404E09A
:1018E0000EE01188FF29CDD8197501220849002082
:1018F0000CF0F6FAB0F5803F04DB6FF00B0070BD22
:10190000284670BD0121A17070BD0000400000207C
:10191000F812002010B5074C607820B106F0C4FF23
:1019200020780CF0ADF800F063FD00F03BFE0020E5
:10193000607010BD4000002070B50C46050002D05C
:101940000CB1600702D06FF0150070BD00F016F901
:10195000A8B128460CF05AF80A4D00220A4928700E
:1019600020460CF0BDFA0FF088FF0021287806F021
:1019700083FFFFF711FF01206870002070BD4FF05A
:10198000FF3070BD40000020F812002030B589B053
:1019900005000CD00BF0E2FF4FF0FF3420B10BF04C
:1019A00093FEB0F5FA7F05D9204609B030BD6FF03F
:1019B0001500FAE7144C1548656000F0F5F90020B1
:1019C0006070A070E07001462422684610F042FB6F
:1019D00024220F49684610F0C3FA242269460D48B4
:1019E00010F0BEFAEFF3108472B600F00FFD0A4853
:1019F00000F0E4FD18B1CB21032000F00FF804B98A
:101A000062B60020D1E700004000002099170000D6
:101A10000C1B0000F8120020A91B00000EB572B6C6
:101A2000154A5568DDB1002203466E460A2403E0DC
:101A3000B0FBF4F0521CD2B20028F9D1B0540AE045
:101A4000D8B2B0FBF4F7B3FBF4F304FB1700521E5B
:101A5000D2B23030B054002AF2D13046A847BFF39A
:101A60004F8F06480168064A01F4E06111430160A6
:101A7000BFF34F8F00BFFDE7400000200CED00E0FA
:101A80000400FA0510B5074CA0786178084302D02D
:101A90004FF0FF3010BD06F017FF0120E07000206E
:101AA00010BD000040000020064810B58178407845
:101AB000014302D04FF0FF3010BD06F0F3FC0020D0
:101AC00010BD000040000020064810B58178407825
:101AD000014302D04FF0FF3010BD0FF0D0FB0020CB
:101AE00010BD000040000020064810B58178407805
:101AF000014302D04FF0FF3010BD0FF0E4FB002097
:101B000010BD0000400000200100000001000000A6
:101B1000001B1B03020000004C1D0000030000001E
:101B200008000000000000000000000000000000AD
:101B3000E07E2EC15E0585234615DCFA8E297D7078
:101B40001093A5FC054A10B5526812B1BDE81040CB
:101B5000104792210420FFF761FF00001C130020B2
:101B6000054A10B5926812B1BDE81040104798219F
:101B70000420FFF753FF00001C13002005480168F4
:101B800029B1416819B1806808B10120704700206F
:101B9000704700001C13002002490DC881E80D00A9
:101BA000002070471C130020F8B5124C0026256851
:101BB00011E00098022802D003280CD106E020682A
:101BC00010B10020266005E028210CE0206868B1F3
:101BD00001202660A847684600F0B6FC0028E8D03F
:101BE000052805D035210420FFF718FF2D21FAE73D
:101BF000F8BD0000480000202DE9F04705462549C2
:101C0000001D01F5847700260860387850B1BA7855
:101C10003C46791C2846921C10F0A2F9267004203C
:101C2000BDE8F0871B4801F0D9FE0446022804D025
:101C3000042C07D0082C27D02AE0164928460CF09F
:101C4000D4F925E0134928460CF034FAB0F5817F29
:101C500003D3C7210820FFF7E1FE0028D5D095F86F
:101C6000009095F80280484600F044F80028CCD057
:101C7000B9F13E0F0CD14046B8F1120FC5D000F0BB
:101C80004BF80028C1D003E0024928460CF0DBF9EC
:101C90002046C5E72813002070B50A7882703AB351
:101CA000012A25D81323037000230AE001EB430423
:101CB00000EB4305A678EE706488240A5B1C2C7147
:101CC000DBB29342F2D300230BE000BF01EB4305EC
:101CD00000EB43042E796671AD882D0A5B1CA5715B
:101CE000DBB29342F2D3012101EB8200C0B270BD9E
:101CF000002070BD402803D2401EC1B2054805E057
:101D0000FF2805D04038C1B2024808300CF064BC4E
:101D1000012070474C000020401EC1B201480CF069
:101D20005BBC00005C000020024902680A61406858
:101D3000486170474C000020054902680A6040680D
:101D400042F48C220A60034A104348607047000046
:101D50004C000020F8074002024902688A6040688F
:101D6000C86070474C00002007484FF0FF31002248
:101D70000160C90C416000F108011F200A604A603F
:101D80000831C1E9000270474C00002010B5FFF790
:101D9000EBFF0FF0E8F904460248006800B1804705
:101DA000204610BD64000020014908607047000013
:101DB000640000202DE9F04104464FF08050D0F837
:101DC000A0701F4D1E4E103D10220021204610F025
:101DD00041F91022002104F1100010F03BF92868AD
:101DE000401C08D16868401C05D1A868401C02D17D
:101DF000E868401C07D028686A68A968EB68206119
:101E00006261A161E361002000F0ACFC8743F80748
:101E100013D13068401C08D17068401C05D1B068EF
:101E2000401C02D1F068401C07D032687068B1686D
:101E3000F36822606060A160E3600020BDE8F0818B
:101E40009000001038B54FF0805104462248D1F878
:101E5000A010214D0268143D521C04D14268D243A7
:101E60001204120C35D0C90733D001684068ADF8B0
:101E70000000C4F80110BDF80000A4F80500A07926
:101E800040F0C000A0712868401C0CD06868401C5D
:101E900009D0A868401C06D0E868401C03D0002088
:101EA00000F060FC40B110220021E01D10F0D2F8DB
:101EB00001202070002038BD2A686968A868EB6896
:101EC000C4F80720C4F80B10C4F80F00C4F813308E
:101ED000EEE70020EDE70000A400001002210180E1
:101EE000418000210171E021417142F67E61C18093
:101EF0000149816000207047C15E05852DE9F041F0
:101F00008C79DDF818E0082C01D9DB212CE0DFF812
:101F1000A4C05CF820500DB1DC2125E0CD79002D66
:101F200045D06F000A371D68022C3D4401D9264672
:101F300001E04FF002062E44A6F1010601D9254624
:101F400001E04FF00205A5F1010526EA05068D889E
:101F50002544A4F10104A5F1010525EA04054FF685
:101F6000FF74A54203D3E7211720FFF757FDBEF109
:101F7000000F18D1F41B4CF820402580C879A070C0
:101F80000120E070227108684FF6F072000CE080CA
:101F900008882081002003E004EB4007401C7A8180
:101FA000CF798742F8D8C87900FB05601860BDE892
:101FB000F08100006800002030B503464FEA0200BF
:101FC00003EB400464898C4209D09C78401CB0FB30
:101FD000F4F504FB1500C0B29042F1D1FF2030BDF2
:101FE000084A10B552F82140014620460CF045FE43
:101FF0000146FF2804D02046BDE810400CF051BE39
:10200000002010BD6800002070B5044608784A78AA
:1020100086B0904202D94FF4847106E001943CB13D
:102020000023600706D040F219111720FFF7F6FCD5
:102030000123F6E70B4800220B4E02604978D6E9EF
:102040000050B66861F31F60CDE90250009304961A
:1020500001AB02A91046FFF751FF019806B0001B23
:1020600070BD0000680000205821000010B5044633
:1020700080790E4951F82000A8B14FF6F073E1794C
:10208000827891420FD24A1CE27100EB41025289E0
:102090009A42F4D000EB41025289A2800CF001FE7A
:1020A0002060002010BD052010BD00006800002049
:1020B0002DE9F04107464FF6FF703880124850F87E
:1020C0002140ECB1A5782079B0FBF5F105FB1106B4
:1020D00032464FF6F0712046FFF76EFF0246FF28AA
:1020E0000ED0A81B1044B0FBF5F105FB11002179BF
:1020F000084481B239802046BDE8F0410CF0B7BDFC
:102100000020BDE8F0810000680000202DE9F041CA
:102110000646104850F82150314628460CF0ADFDD7
:102120000446FF2812D0D5F8060021464FEA304772
:1021300028460CF0B6FD01463046B84705EB440191
:102140004FF6F07048810020BDE8F08143F20200B4
:10215000FAE70000680000201F050100A80208003F
:10216000000000002DE9FF4F244C064681B0206896
:102170009A46934658B1017AB14203D9406850F863
:10218000260040B143F2020005B0BDE8F08FA52162
:102190001820FFF743FC194602980CF0BDFD80465D
:1021A00058460E990CF0AEFD054608EB0500001DE3
:1021B00087B22068A146394600680CF0F3FC0400A1
:1021C0001AD0678025802946201D0E9D07465A4655
:1021D000092300950CF060FC2088414638440A230E
:1021E000029ACDF800A00CF057FCD9F80000406826
:1021F00040F826400020C7E70420C5E76C00002017
:1022000070B5144C23688BB1197A814212D95A687F
:1022100052F8201071B1002542F820504A88186801
:102220000CF018FD216800200A7A0CE0C621182065
:10223000FFF7F4FB43F2020070BD4B6853F8203007
:1022400033B9401CC0B28242F7D808680CF0F7FCE2
:10225000002070BD6C0000202DE9F0410D46040007
:1022600090464FF0000606D00027A00705D0862133
:102270001820FFF7D3FB0127F7E7CDB11146002067
:102280000CF0C1FC0C3000EB85068FB90A4F04F14D
:102290000C00AA003C602572606000EB85002060A5
:1022A000002160680FF0D6FE414638680CF0ABFCA8
:1022B0003046BDE8F08100006C00002070B5084D8C
:1022C000286800280AD0002404E02046FFF798FF81
:1022D000641CE4B22868007AA042F6D870BD000001
:1022E0006C000020094910B502460968002049B178
:1022F0000B7A934205D9496851F82210002900D081
:10230000081D10BDEC211820FFF788FB6C00002091
:102310000A4910B502460968002059B10B7A934268
:1023200007D9496851F82210002902D031F8040B6E
:10233000084410BDFA211820FFF770FB6C00002044
:102340000148407870470000700000200148406854
:1023500070470000700000202DE9F8430C46074646
:102360001646252110460D4622460CF0DAFB804623
:1023700057B13846414632462B4600940CF08CFB50
:1023800003484760047046704046BDE8F88300008B
:10239000700000200248427801784068FFF7DCBFF7
:1023A0007000002030B50D4901204860821EC1F840
:1023B00008230B4988600023C1F80032C1F80823C4
:1023C000084C2360251D28608860C1F8082323601D
:1023D000286006490448086030BD000000E0004065
:1023E00000F0004000F500400000F63F08F5014015
:1023F00010B5FFF7D7FF0CF0B7FC034901480860A0
:1024000010BD00000000F63F08F5014010B5FFF7D1
:10241000C9FF0CF0A9FC00F087F8054903480860E3
:1024200000F0B8F8BDE8104000F0DCB80000F63F5E
:1024300008F501402DE9F84F824638480FF08DFC31
:10244000DFF8D8B028B101260BF10100FF2101709F
:1024500000E000264FF48075314C4FF000082F1D2E
:1024600001216160C4F80081C4F80481C4F804A5A6
:102470002160DFF8B0901CE0D9F80000C00618D544
:102480000E200CF080FCEFF31080009072B6032158
:102490002046C4F8041329460CF082FC30B93946B2
:1024A00020460CF07DFC08B90FF0EEFC009800B956
:1024B00062B6294620460CF073FC28B939462046FE
:1024C0000CF06EFC0028D7D0394620460CF068FC92
:1024D0000028C5D106BB9BF801108DF800100099AB
:1024E00000919DF8001009B1012500E000250BF1D5
:1024F000010080F800800320C4F80803C4F80481B8
:10250000C4F800810E200CF03EFC04480FF03CFCA7
:1025100015B11120BDE8F88F0020FBE7540300201F
:1025200000E0004010ED00E010B506480FF028FC78
:1025300018B130211D20FFF771FA024800214170C7
:1025400010BD00005403002070B511490A68EAB1BB
:1025500000231D4601244A68521C4A60092A00D300
:102560004D600E7904FA06F20E6816420BD0EFF3B6
:10257000108372B60C6894430C6003B962B6496864
:102580000160002070BD5B1C092BE4D3052070BDE9
:10259000780000200248002101604160704700007F
:1025A0007800002010B5044C2078FF2803D00BF0F1
:1025B00067FAFF20207010BD0000002010B5084C05
:1025C000617809B10F2010BD0BF020FA2070FF28B0
:1025D00001D0002010BD73211F20FFF71FFA00005B
:1025E00000000020014900204870704700000020D2
:1025F0000648074A818C5288914204D190F8220003
:1026000008B100207047012070470000F415002039
:10261000480300200149488070470000480300201B
:102620000848094A818C5288914209D14FF6FF71BE
:10263000818410F8221F19B1002101700120704718
:1026400000207047F415002048030020074810F8C8
:10265000221F012907D00121017005480349008884
:10266000888401207047002070470000F415002086
:10267000480300200649074B8A8C5B889A4205D1A3
:1026800091F8222012B101600120704700207047AC
:10269000F41500204803002009498A8CA2F57F43E5
:1026A000FF3B02D00021016007E091F8222004499D
:1026B000012A02D00160012070470020704700000D
:1026C000F4150020014908807047000048030020ED
:1026D0000549002081F822004FF6FF7088840349E5
:1026E0000880488070470000F4150020480300204F
:1026F00005498A8C824205D1002081F822004FF6DC
:10270000FF70888470470000F41500200A4A10B159
:10271000012807D00EE0507860B1D2F802000860BE
:10272000D08804E0107828B190680860908988808B
:10273000012070470020704756030020084A0123FB
:1027400038B1012804D1137008689060888890819E
:10275000704753700868C2F802008888D0807047BC
:1027600056030020064910B1012802D005E0487840
:1027700000E0087808B10120704700207047000091
:10278000560300200149087770470000020D002021
:1027900070B50C46054600F02BF918B1D021272062
:1027A000FFF73CF9034801210CF031FF0248C0E972
:1027B0000B5470BDE00C0020800000200149012076
:1027C00048717047800000202DE9F84F654E0A9C43
:1027D0003578EDBBE2B3DBB3D4B306F11405C6E93B
:1027E0000F0185E81C00002777713771B77077708B
:1027F000F770B781F78100F04BF9054600F042F918
:10280000044606F0E1FC06F07BFA94F96E0006F04F
:102810005FFDE06906F042FE606906F035FE95F85E
:10282000330006F06BFE4FF0010B94F86A100020A5
:1028300006F0CAFB00287DD04B4806F029FC208812
:10284000FFF766FD70632088FFF74CFDB06300E082
:1028500009E094F877008DF80000009800909DF84A
:102860000000A8B902E040F2451177E0206F78B18E
:10287000B5F84A00A98A88420AD1B4F87410012236
:102880000844A5F84A0094F87600216F09F0DEFEAE
:1028900005F18802DFF8D49092E80C1189E80C1158
:1028A000D5F89820C9F81920D5F89C10C9F81D1042
:1028B00000F022F9228F014610460CF034FCA18E64
:1028C000814200D20846B071B04694F86B10BA4607
:1028D000E08F95F82370A68F082900D104210CF011
:1028E00022FC0FB9001D80B2864200D2304688F823
:1028F000070088F8080095F8220088B189F818B018
:10290000D5E91E12C9E90412564694F86A000CF083
:10291000F7FA0346FB2215493046009606F05CF9AB
:10292000012000F063FB12480068032814D00B2834
:1029300012D000E00EE00D480E2200214A300FF0C8
:1029400089FB0A48A98A4A3041802188018095F88C
:1029500033100171BDE8F88F40F202212720FFF704
:102960005DF800008000002074310000B80C0020E9
:10297000501500402DE9FC418846074600F088F8D4
:102980001A4C0546B807616A4E7816D5A06A30B36E
:102990006289D21C0FF0E4FAA06A6062694601AA5B
:1029A000A06B0BF0F6FF00980BF090FFC8F800004A
:1029B00031460122A06B0BF040FFF8070DD0D5E99E
:1029C00020011835401C41F10001C5E91A0115F834
:1029D0001809012808D001202876BDE8FC8140F2C2
:1029E0005C412720FFF71AF80020F5E7800000205F
:1029F0000448007808B10C2070470349002008778C
:102A00007047000080000020020D0020124808B529
:102A1000017839B10078012806D040F21A21272028
:102A2000FEF7FCFF00F0BCF900F02CF890F87710EE
:102A30008DF80010009900919DF8001000290AD12E
:102A4000016F002907D090F876000022BDE8084009
:102A5000114609F0FBBD08BD80000020084600219A
:102A60004170222100F8041B0E2201490FF078BAB0
:102A7000100D0020024A9389034393815269104745
:102A8000800000200148406870470000BC00002022
:102A90000148406888307047BC000020014A00218E
:102AA000526910478000002070B5054601291CD8E6
:102AB000104CA1698847C0B12079B0B9012D16D159
:102AC00004F110000078C10605D4E16A0978C9064E
:102AD00001D4012100E00021A26A1AB962890AB179
:102AE000C00602D5A089014301D0012070BD00209D
:102AF00070BD00008000002010B5FFF7C3FF044642
:102B0000FFF7C6FF0146407F0B4A25280AD026283A
:102B100008D0897F252905D094F86A00042800D1BF
:102B2000082010BD506890F8621294F86A00BDE861
:102B300010400CF0F3B90000BC0000202DE9FF5F4D
:102B40008B468146FFF7A4FF0027644C06468DF8AC
:102B500008700397019720783D46022804D040F280
:102B6000DF412720FEF75AFFA07B400606D4402015
:102B7000FFF794FFE08940F04000E08196F82300E1
:102B80004FF00108B9F1000F3AD080B106F0F2F829
:102B900006F0CCF858B9606A417841B10078317ECE
:102BA000C0F3C000884202D184F8018092E0606ADC
:102BB0004178618121B1A06B0BF0C1FFA06200E000
:102BC000A562E08940F48070E081606AF17D007860
:102BD000C0F38000884207D003A800F085F9E0899F
:102BE00040F48060E08100E00127606A317E007877
:102BF000C0F3C00088420DD102A800F02BF909E013
:102C000008B106F0B1F8A078401CA070E08940F44B
:102C10000070E081DFF8C4A096F822000AF13C0AB7
:102C200098B1FFF72FFF2E4981F81880D6E91E23AF
:102C3000C1E9042390F86A000CF062F90346FB2214
:102C400027492846009505F0C7FF4FF00008BBF163
:102C5000000F04D1A1780120FFF726FF20B106F074
:102C6000FFFB4FF0010802E0002000F0BFF99DF8E3
:102C7000080018B101A90220FFF77CFE18484A306D
:102C800017B14289521C4281B9F1000F04D0C188AA
:102C9000491CC180A57002E00189491C01810F48CF
:102CA0003C3001F079FA039840B10BF00FFEDAF8EE
:102CB0000410401C057208220CF0E5FC019830B1AC
:102CC000DAF804100572102201980CF0DCFCB8F15F
:102CD000000F01D000F064F8BDE8FF9F80000020E5
:102CE000B80C00202DE9F84388468146FFF7D0FE56
:102CF000294D04462878012804D040F26B41272052
:102D0000FEF78CFE207C0026012720B126740021CE
:102D10000420FFF7AFFE296A0878C043800709D175
:102D2000A07D88BB0220FFF7A5FE286A0078C0437B
:102D3000800729D0286A407810B10220A07500E0F1
:102D4000A77594F8230098B1FFF79CFE13492D7ADC
:102D50000E76D4E92023C1E9042390F86B000CF02F
:102D6000CFF803462A460D493846009605F034FF51
:102D700038EA090004D000210846FFF795FE28B183
:102D8000BDE8F84300F00CB80320D7E7BDE8F843EE
:102D9000002000F0EFB8000080000020B80C0020F8
:102DA00010B506F087F805F0ABFF0D4CE089FFF792
:102DB00075FE0C48007F58B10A490E2201F10E0041
:102DC0000FF0CEF80748022207491D300CF06FFCC7
:102DD000E2692179607890470020207010BD0000E2
:102DE00080000020020D00205D2A0000084810B578
:102DF0000078022804D040F249212720FEF70EFE79
:102E0000044901200873BDE81040FFF7C9BF000066
:102E100080000020020D002030B404460C48007AE7
:102E20000BB1001DC0B23AB9FF2805D194F86B2050
:102E300094F86A309A4209D021B194F86B1030BCF2
:102E400006F032BBFF2094F86A10F8E730BC7047F8
:102E5000800000202DE9F0410746FFF719FE214CC4
:102E600005460126616A087800F0030001280CD0AD
:102E700002280AD003281BD12E74E08940F4006098
:102E8000E0810120FFF7F6FD12E0487880B1E1898A
:102E900041F40061E181A16A002918D0FB2818D80B
:102EA000607920B1BDE8F0412020FFF7F7BD3E700A
:102EB000287E012812D02E76606A4078002806D03D
:102EC000F5E92001401C41F10001C5E90001BDE820
:102ED000F081207940F010002071F8E7002028767A
:102EE000EAE700008000002070B50546FFF7D0FD3E
:102EF0000446807D002826D002280CD11748294698
:102F0000406B0BF072FCF8B1D4E91E01401C41F19A
:102F10000001C4E91E010025A575607C012670B181
:102F20006574FFF77DFB90B100210820FFF7A2FD3B
:102F3000D4E91E01401C41F10001C4E91E01E07DFD
:102F4000012809D0E67570BD40F2DA3101E040F2A7
:102F5000F1312720FEF762FDE57570BD800000208D
:102F600003480078002801D0FFF71ABF704700001F
:102F7000800000202DE9F0410746FFF783FD8046E1
:102F8000FFF786FD174C05463A46E06A606295F801
:102F9000233001214046FFF73FFF95F8230000262C
:102FA00068B1206B06F0B6F90F480676D5E9201215
:102FB000C0E90412216B606A05F060FE04E0606AFB
:102FC00006F0A8F905F09CFE17B9304606F068F83F
:102FD000002198F86A20084606F024FA02202070A2
:102FE000BDE8F08180000020B80C00202DE9FC47EE
:102FF0000446FFF74DFD0546FFF744FD4FF000087E
:103000008DF800800646DFF8649195F8233022465B
:103010004146FFF701FFA87D0127A9F1200440B137
:1030200001281FD0022830D003283CD040F2FB21D9
:1030300058E0A0795021ADF8040088534846FFF7C6
:1030400019FB28B18020216AFFF714FD6F742EE070
:103050006A4601A9606B0BF06BFF206210B195F816
:103060005D1011B14248206221E09DF8001031B995
:10307000A0F8008080F8028001210CF0C8FABDF8A9
:103080000410206A0CF05DFA11E0B6F85000ADF8BB
:1030900004006A4601A9606B0BF04AFF206230B958
:1030A00040F2E5211EE04846FFF7E4FAC0B1206A8D
:1030B0000823017801F0F7010170EA7D03EAC202FA
:1030C000114301F0FB0101702A7E042303EA82020E
:1030D000114301F0EF010170C943890705D007E0F2
:1030E00040F2EE212720FEF799FCC07802280FD08D
:1030F000606B0BF091FC08B101210AE0206A0078B6
:10310000C043800704D0FFF773FA80F0010100E0AC
:103110000021206A027842EA0111017095F822101C
:1031200081B1417871B1206B06F0F4F8104828386D
:103130000776D5E91E12C0E90412216A206B05F05A
:103140009DFD03E006F0E6F805F0DAFD96F86B2049
:103150000121002006F066F9E770206A01882182CB
:103160008078A0742770BDE8FC870000A0000020D4
:10317000E00C0020ED2D00003D2B0000E52C0000B0
:10318000612F000000487047A417002004494A78C6
:10319000824203D9084490F84201704700207047EA
:1031A0001A16002004494A78824203D901EB001024
:1031B00082307047002070471A160020054A01EB44
:1031C000410102EB41010268C1F80A218088A1F89F
:1031D0000E0170471A1600202DE9F0410746002421
:1031E000104D19E02046FFF7DDFF030012D028192B
:1031F00090F8420170B904EB440005EB400606F577
:1032000085763A46314618460BF015FE3046214683
:10321000FFF7D4FF641CE4B26878A042E2D8BDE8AE
:10322000F08100001A1600202DE9F0410E460746F5
:103230001546062130460CF06DF80D4C60B10020AB
:1032400004E02118401C81F83A51C0B261788142F3
:10325000F7D80120BDE8F081314638460BF077FE03
:10326000082803D0204480F83A51F2E70020F1E723
:103270001A16002004494A78824203D901EB001053
:10328000801C7047002070471A16002008494A78B1
:10329000824203D90A1892F842210AB100207047ED
:1032A00000EB400001EB400000F585707047000026
:1032B0001A16002010B54FF4C572002105480EF013
:1032C000C9FE05480021017041704FF461714180D1
:1032D00010BD00001A1600204C03002001490870A0
:1032E000704700004C030020014800787047000040
:1032F0004C0300200B4B10B55C78844210D9184465
:1033000090F80201C0EBC000184490F852310B70E5
:10331000D0F853111160B0F857019080012010BD12
:10332000002010BD1A1600202DE9F047984691465E
:103330000F46064600F0CCF80446082806D000F0F8
:10334000B3F8082802D01220BDE8F0871F4D687836
:10335000082838D2082C13D12C78601C2870082C2F
:1033600003D344212820FEF759FBC4EBC4002844B2
:103370003968C0F85311B988A0F8571180F8526124
:103380006E781022701C687005EB0617B81C494651
:103390000BF088FF07F18200102241460BF082FFFC
:1033A000102140460BF0B6FF3544102185F842014C
:1033B000484605F22B150BF0ADFFE87705F8294CD0
:1033C0000020E873C0E70720BEE700001A160020BF
:1033D000064810B54078401E44B204E0E0B200F068
:1033E000D9F8641E64B2002CF8DA10BD1A16002059
:1033F00001484088704700004C03002038B14AF271
:10340000B811884203D80349488001207047002042
:10341000704700004C03002070B501241646254675
:1034200000F056F8082819D000F03EF803460828A6
:1034300014D006B133701846FFF71CFF70B10A486C
:103440004178994203D9C11891F84A5100E000250A
:10345000184490F83A01012803D0002444EA0500FA
:1034600070BD0124FAE700001A16002001494870D7
:10347000704700004C0300200246094810B5007850
:103480000B4658B10748417841B10BB1801C01E0AF
:103490000448823005F0FAFA012010BD002010BD6A
:1034A0004C0300201A160020084910B503460020DE
:1034B0004A7806E00C1894F802419C4204D0401C63
:1034C000C0B28242F6D8082010BD00001A160020B3
:1034D000F0B51A4C0346002025782BE0C0EBC00263
:1034E00022440F7892F853C192F8526187EA0C0790
:1034F0005E403E444F7892F854C187EA0C073E4440
:103500008F7892F855C187EA0C073E44CF7892F83D
:1035100056C187EA0C073E440F7992F857C192F8DA
:10352000582187EA0C073E444F795740F74204D0B0
:10353000401CC0B28542D1D80820F0BD1A16002028
:1035400070B50546FFF7B0FF082820D1104C207851
:10355000401EC0B22070A84219D0C0EBC000C5EB1D
:10356000C5012044214400F5AB72D0F85201C1F8E6
:1035700052011088A1F85601907881F858012078FE
:10358000FFF792FF082802D0204480F8025170BD56
:103590001A1600202DE9F0471D4C0646A719607841
:1035A000401EC5B2657097F802A1AE422AD004EB66
:1035B000051904EB061809F1020108F102001022B6
:1035C0000EF0CEFC09F1820108F1820010220EF00B
:1035D000C7FC601905EB450290F8021187F802114B
:1035E00006EB460104EB420204EB4101D2F80A313A
:1035F000C1F80A31B2F80E21A1F80E2190F83A0173
:1036000087F83A015046BDE8F047FFF799BF000040
:103610001A1600202DE9F041044600F1880771B127
:1036200004F1AE06751E012916D0022925D0032902
:1036300010D131462846BDE8F0410BF0DBBE4FF417
:103640002A7200210EF006FD384600F04DF82020C9
:1036500084F84902BDE8F08121690D480A46084412
:10366000B0FBF1F0C4F8CC0040F6B830A4F8D000BC
:10367000638B384600F00EF8DBE70169B4F8763268
:10368000D4F870223846BDE8F04100F003B80000DD
:103690007FC3C90110B50024A0F84E4030F8524F46
:1036A0004C43B4FBF2F420F8124940F27124634316
:1036B00002EB03135B1EB3FBF2F30382094BB3FB74
:1036C000F2F35B1CC3820389634302EB03135B1EAB
:1036D000B3FBF2F3436003684B43B3FBF2F10160C9
:1036E00010BD0000005A6202012180F825100B492C
:1036F000C0F86E100721C0F8721000F16E010A7850
:1037000022F004020A70FE2180F8A6107F21417683
:10371000034981600021C0E9001170472F4904C4AA
:1037200000E0FCFF024991F900100BF014BE00000C
:103730006403002008B57F208DF80000684605F07E
:1037400097FE40B105484078404241B29DF90000E3
:103750000BF001FE08BD9DF9000008BD64030020C8
:10376000014A10705170704764030020094908B580
:1037700009788DF80010009900919DF8001009B1AA
:10378000002008BD0349D1F8012002604979017188
:10379000012008BD660300200549FF220A700A4681
:1037A0000368C2F80130007950710020087070473A
:1037B0006603002070B590F8322090F83130012473
:1037C00003FB01212522B1FBF2F302FB131100EBF5
:1037D000D10280F8321001F0070392F8262004FA93
:1037E00003F31A4204D000BF80F83310002070BDEC
:1037F00090F83020B1FBF2F302FB1311491CC9B25F
:103800000023C51895F82B208A4212D395F826502C
:10381000002200BF04FA02F6354201D0491EC9B2A7
:1038200021B1521CD2B2082AF4D304E002EBC30146
:10383000DAE7891AC9B25B1CDBB2052BE1D31F2082
:1038400070BD000070B5491C0023C9B20124C51821
:10385000AA798A4212D395F80150002204FA02F69E
:10386000354201D0491EC9B221B1521CD2B2082A38
:10387000F4D305E002EBC300C0B270BD891AC9B22F
:103880005B1CDBB2052BE2D39D214620FEF7C6F878
:10389000417841B1C0782B2803D2044A105C884299
:1038A00001D1012070470020704700009E210100D7
:1038B00010B50122C1702B2902D2064A525C06E0E3
:1038C000FF2904D040F274412A20FEF7A7F8427085
:1038D00010BD00009E2101000449897C490700D4E5
:1038E00008B1002070470120704700003415002007
:1038F0000348807C800701D4012070470020704776
:10390000341500200348807CC00701D00020704798
:1039100001207047341500202DE9FE438846994662
:103920001546044601A90BF067FBB0BB029E0120BF
:1039300088367DB12046FEF7EBFC04000DD0294609
:103940000BF03CF818B118494988A94207D2002069
:10395000BDE8FE8386F824001FE0672120E00146D1
:103960006A4620460BF023F80098002707808770EE
:1039700096F8241009B14FF0020841460BF047FEBB
:1039800000982A464946C01C0EF0EAFA204629460D
:103990000AF0CBFF18B186F824700120D8E77C210B
:1039A0002B20FEF73BF8000034150020094882B0B8
:1039B000007A8DF80000009800909DF80000002823
:1039C00005D102220449034802B00BF05CBE02B0EC
:1039D000704700004C150020CDF600002DE9F84F8F
:1039E000DFF8A491694F83464FF0010A00267868FA
:1039F0003546007A8DF80000009800909DF8001080
:103A0000102906D199F8131019B1B9F8140000283B
:103A100077D08DF80060684600F01CF99DF8001022
:103A20000029F8D100286CD00446007A8DF80000F7
:103A3000009800909DF8008004F108000521009096
:103A400001704046B8F1060F30D007DC02280FD0D5
:103A5000032819D0B8F1040F07D11FE0082835D08A
:103A60000F2852D0B8F1100F59D040F24A2164E02B
:103A7000626832B1594620469047042060F307053A
:103A80005EE040F2C31158E0626822B15946204618
:103A90009047054654E04FF4E6714EE0616811B17D
:103AA000204688474CE04FF4EB7146E0626832B143
:103AB00059462046904702F069F818B11FE040F2DD
:103AC00011213AE000F0BCFEA0B318E001466068A6
:103AD0005D4618B10488082911D101E0E5212CE0E8
:103AE0002046FEF715FC70B16E700F222A70EC8034
:103AF000A5F808A0314685F804A00AF0F6FF0420D6
:103B00003E61BDE8F88FC52117E08BF801601A21EE
:103B10008BF80010D4F80910CBF80410ADE71C485E
:103B2000026822B1606830B100885946904702208F
:103B30003E61E6E704E04FF410711020FDF76EFFE0
:103B4000C5F30720012810D0EFF3108072B6217A58
:103B50008DF80010009900919DF80010052908D0FB
:103B600039B166F3070538B107E0009841460170A6
:103B700003E026723E61F6E762B615F0FF0F3FF4F0
:103B800036AFE8B2BDE70000341500206015002014
:103B9000C40000200149087000F0BEB86C0300208A
:103BA0000249014808607047B13B0000C400002092
:103BB00038B50D0014D0A88000216972FEF792FB81
:103BC00004460AF0D6FE70B101466A4620460AF065
:103BD000EEFEE88050B1FB280BD940F2231133E010
:103BE00040F2131130E04FF48E712DE040F22111BC
:103BF0002AE000980BF0C9FC012804D0022802D06A
:103C000040F2331120E028722868A8B10099EA88B0
:103C1000C91C0EF0A5F920460AF073FE78B12046C3
:103C200000210AF062FF68B10948C17C002902D076
:103C3000818A491E818238BD4FF49D7104E040F2B3
:103C40003F1101E04FF4A2711020FDF7E7FE0000E4
:103C50003415002038B5034617490020187008694C
:103C6000012440B1027A8DF80020009A00929DF85C
:103C70000050002D11D14868027A8DF80020009A7A
:103C800000929DF80050012D06D0EFF3108272B61D
:103C900005684D6012B102E0002038BD62B6027ABC
:103CA0008DF80020009A00929DF800500DB1086137
:103CB00038BD1C7038BD00006015002038B5D0B18B
:103CC000416000F108010A70EFF3108372B6104CE6
:103CD0000460211F4A684AB1127A8DF80020009AC8
:103CE00000929DF80050012D00D10C600A68106010
:103CF00008602BB105E040F275211020FDF78EFE23
:103D000062B604480078BDE8384009F09DBE000066
:103D1000641500206C03002010B51422002108480F
:103D20000EF098F906481222002114380EF092F98C
:103D3000034801210173011D4160016010BD0000B5
:103D400060150020F0B450810C8994818B89D38157
:103D500048891082CD895582CE8DAE4208D14D8DD5
:103D6000854205D10D8E9D4202D18B8DA34201D09B
:103D7000012300E0002313754885508AC885908987
:103D80008885D0890886F0BC014910460BF075BCC7
:103D9000B53D00005081888A9081C88AD081088B07
:103DA0001082488B5082024910460BF063BC000021
:103DB000F53D000038B5A0F11804007D0D4600F077
:103DC0000100FFF789FD002108B100910CE0697046
:103DD0001620287054F8220F68606068A860A068F8
:103DE000E860034840680090BDF8000038BD00005E
:103DF0007C3E000070B586B00E460446FFF778FDA5
:103E0000002558B3A4F5C0702572048803A9204684
:103E10000DF02DF908B1FE2117E0ADF80040BDF816
:103E20001200ADF80200BDF81400ADF80400BDF8B2
:103E30000E00ADF80600BDF81000ADF808006846A9
:103E40000DF03CF920B140F207112C20FDF7E6FD02
:103E5000CDF80050BDF8000006B070BD1F203070D6
:103E6000757054F80A0F70606068B0602089B08186
:103E7000014800680090EDE77C3E0000040000006F
:103E800004000000F0B56FF01F02010C02EA90265A
:103E90001F25A1F5AA4054380DD0A1F5AA405538E8
:103EA00009D0A1F52850AA3805D0A1F52A40AA3892
:103EB00001D0012000E00020002213464FEA020456
:103EC00082EA0107FF431F437F1C0FD006F0010762
:103ED000520842EAC73205F001075B0876086D0810
:103EE000641C43EAC733162CEAD3F0BD0020F0BDB2
:103EF00010B504460BF00EFD08B3E0430BF00AFDCD
:103F0000E8B1A01680EA6000411E084217D02046A2
:103F10000BF04FFD182812D8A0B2B0EB144F07D108
:103F20004FF0FF1101EA142104F0FF10814206D086
:103F300004484440601E044201D0012010BD00200E
:103F400010BD0000D6BE898E10B504480BF0F3FCFE
:103F50000248BDE8104008300BF0EDBCC80000205E
:103F6000014800F003B80000D000002010B5D0E9EF
:103F70000021094B094C53435443514081EAB2128A
:103F800082EA41224FEAF141C0E9002143EAD463C9
:103F900003EB8303184610BD6037EFC6BB79379E2D
:103FA00070B545680C1D002395F8A62088350126BC
:103FB000194628460BF036F8C0B120680C4B6168F2
:103FC000184041F60702C5F86E001140C5F872109E
:103FD0001B2105F16E000BF0D1FD0020A5F85A0061
:103FE00085F85C600420A877002070BD012070BDBA
:103FF0002F4904F710B5041D04F0B6FC034B41F63D
:104000000702184011402060616010BD2F4904F77D
:104010002DE9F8430546037840680F1D00F1880636
:1040200000F5A9748046727F072130460AF0FAFF36
:1040300000B339681A4B7868194041F60702C6F890
:104040006E101040C6F872001B2106F16E000BF0D6
:1040500095FD002086F858007077696881F84B015B
:1040600094F868108DF80010009900919DF80010E8
:1040700099B902E00120BDE8F883B8F80010A4F86F
:104080006A1084F869003968E1667968216702225C
:10409000044904F160000BF0F6FA0020EBE70000A1
:1040A0002F4904F7DDFB000070B50D1D446804F0D6
:1040B0005BFC41F60702054B114094F8F6201840CE
:1040C000024062F307002860696070BD2F4904F761
:1040D0002DE9F04144680D46037894F8A520883412
:1040E0000127082120460AF09DFF30B90023A27F56
:1040F000194620460AF096FF20B394F85F004FF06F
:104100000006800719D428460BF09BFA84F8690052
:1041100035F8050FA4F86A006888A4F86C0094F8D4
:104120005F0040F0020084F85F00C0070DD002225B
:10413000124904F160000BF0BAFA94F85F00C0076E
:1041400003D00EE00120BDE8F0810023A27F1946D4
:1041500020460AF067FF40B1A77784F85C70A4F8A6
:104160005A60607F012804D006E048214020FDF716
:1041700055FC667784F858600020E4E791FC000065
:10418000044A9268C2F580534B43424303EB22300A
:1041900070470000D8000020F8B54468064604F1D6
:1041A000880500F07BF894F8281001291AD100281E
:1041B00018D0706890F85A118DF80010009900918D
:1041C0009DF8001000F5A97000290BD121884181CC
:1041D000697E0173A97E4173BDE8F840022202495D
:1041E0000BF051BAF8BD00000FFD000000F50061B2
:1041F0000D4A10B500F50060091300134BB292F997
:1042000000404042002140B2A34202DA92F902107B
:1042100005E092F90140A34204DD92F9031008443D
:1042200000F30701084610BDD80000202DE9FC412D
:10423000A0F5FE75A0F5BA7495F86B000CF03AFB8A
:104240000646A068FFF7D2FF070021D020460BF0FA
:1042500066FD00281CD0288869460AF0CDFE18B1FA
:1042600085217A20FDF7DAFB761CF1B202233A466B
:1042700068460CF03EFB00280AD106480649007942
:10428000A0FB01650DF0C8FC80196941C4E900017B
:10429000BDE8FC81D800002040420F002DE9F0412C
:1042A0000746FFF747FA7C68054684F8A100883482
:1042B0007F2842D094F833007E68A0762946A06813
:1042C000FFF75EFFA0601E484079C0B1786800F13A
:1042D0008808D0F89000FFF789FF80B140460BF0C6
:1042E0001EFD60B1786800F5A978074604F032FF3A
:1042F00087F86B00134908F1AA000BF0C1F994F993
:104300001B000021281A00D5404296F8292082423D
:1043100010DCFF2A0ED0207F401CC0B2207796F818
:104320002A20904202D8E07E7F2803D10020E57643
:10433000207701210846BDE8F0810020FBE700005E
:10434000D80000202D420000F8B50BF004FD044613
:104350000D466A4600F062F808B10120F8BD0F482A
:10436000037841788B4201D10020F8BD1A4641689C
:1043700008E000BF01EBC206521E56E9027CC6E906
:10438000007CD2B29DF80060B242F3D8F2B201EBE9
:10439000C2015B1CC1E900450370DEE7E4000020B8
:1043A00010B5420703D063214820FDF737FB20B149
:1043B000034A5170506000201070C80010BD00000A
:1043C000E400002038B50BF0C6FC6A4600F026F881
:1043D000002814D00A4A1078401EC1B211709DF80E
:1043E0000000526808E000BF02EBC003401CD3E9A4
:1043F0000245C3E90045C0B28842F5D3012038BD6B
:10440000E40000200149002008707047E40000200B
:104410000148407870470000E4000020F0B5204DCE
:10442000002313702B7823B300245B1EDBB2D5F876
:1044300004C00BE0E5186D080CEBC506D6E9007664
:104440003F1A8E4101D22C4600E02B461D1B012D48
:10445000F0DC0CEBC406D6E9005680EA050781EAD9
:10446000060E57EA0E0705D0451B71EB060503D271
:10447000147010E0147011E00CEBC305D5E9004591
:1044800080EA040681EA05073E4306D0001BA941E5
:1044900000D35B1C13700020F0BD13700120F0BD31
:1044A000E400002001484068A0307047EC00002084
:1044B00010B5214C606890F848000BF07CFC6168F6
:1044C00081F849004A31FEF721F9606890F8480008
:1044D0000BF078FC616881F87D0091F849004A3161
:1044E0000BF055FC30B9616891F849004A310BF086
:1044F00057FC08B1012100E00021606880F85C10E1
:1045000019B990F87D00002814D0FEF771FF0B490F
:10451000A0FB0123606890300BF0B2FC606890F85B
:104520007D0010B10020FEF757FEBDE810400020CE
:1045300000F03ABE10BD0000EC00002040420F0029
:10454000044A0328526800D1516582F858000020BF
:1045500070470000EC000020064808B54068007A6B
:104560008DF80000009800909DF80000002800D011
:10457000012008BDEC0000200249496881F87E0056
:1045800000207047EC0000200A484168886E70B136
:1045900001F16D00FF22027000228A66027091F81C
:1045A0006C100120884004490860002070470C20EE
:1045B00070470000EC00002008F5014002460C485E
:1045C00010B58260C0680C4668B100F0DDFF0BF0EA
:1045D0003DFD204600F0B8F8002807D040F6BB119A
:1045E0003220FDF71BFA40F6B511F9E710BD0000C7
:1045F000EC0000202DE9F0410F4C0546164660689E
:104600000F4690F848000BF0DDFB58B155B938461D
:104610000BF0D1FB31460AF09AFC082802D00120A9
:10462000BDE8F081606890F848000BF0C4FBBDE87D
:10463000F041FEF797B80000EC00002010B50A4CDE
:104640006068416D51B10222427209884181074977
:104650000BF019F861680020486510BD40F2274151
:104660003220FDF7DBF90000EC0000207D4900005E
:1046700070B515460E4C0A46002815D04FF00003C1
:10468000616801F8513F48724FF0080081F82A0034
:1046900008D110460BF08FFB29460AF058FC6168E0
:1046A00081F87B00002070BD4FF00103E8E70000B7
:1046B000EC00002010B5B1B10D4A526882F85F00DD
:1046C000086810668888A2F8640092F8490052F8D9
:1046D000541F487252F8080952F8021CC0F80A1018
:1046E0005188C18110BD40F6A9313220FDF796F9FD
:1046F000EC00002002490148C8607047C457000020
:10470000EC0000200249496881F848007047000029
:10471000EC00002070B50546FDF712FE0446FDF7DB
:1047200015FE21460BF0AAFB010006D00548C06823
:1047300002682846BDE87040104740F6B12132209B
:10474000FDF76CF9EC00002070B5194D044668685F
:1047500090F87010012904D090F8700008B10C2076
:1047600070BDFDF717FE0BF071FC00F0C1F846229A
:10477000002168680DF06EFC69680022012081F854
:104780005D2081F8510081F8582081F87A2081F865
:104790005E4081F89820072081F8500001F16D00FB
:1047A000FF23037081F86C208A660270002070BDC0
:1047B000EC000020054810B5406890F848000BF068
:1047C000FAFABDE81040FDF7CDBF0000EC00002074
:1047D00040B1022806D000220349496801F8512F50
:1047E000087270470122F7E7EC000020024949688F
:1047F00081F8500070470000EC00002010B503461F
:104800000078C00705D058780021FFF799FE0028EE
:104810000CD1074C9878616881F84800D878FFF788
:10482000D7FF6168187981F85000002010BD0000A2
:10483000EC0000200148C06840680047EC00002000
:10484000074808B5406890F840008DF800000098CF
:1048500000909DF80000002800D0012008BD000055
:10486000EC00002010B500F047F90C4B40B158683F
:10487000012180F84210416D0988A0F8441004E03D
:104880005968002001F8420F488058680222BDE8AC
:104890001040034938300AF0F6BE0000EC0000205A
:1048A000215500000248406890F858007047000009
:1048B000EC00002010B500F01FF90C4928B1486841
:1048C00090F85A0001280ED00CE0496891F8580081
:1048D000012801D0022805D191F85900012803D000
:1048E000032801D0002010BD012010BDEC000020E5
:1048F00010B5074C606890F87C00002807D004F0E1
:10490000B7FA04F0DBF86168002081F87C0010BD84
:10491000EC00002000204870072008700248406822
:10492000406B486070470000EC0000202DE9F0412A
:10493000104D06460F4668680F4990F87A000C5CE7
:10494000204604F0DBFD6868012180F889402520BD
:1049500004F0AAFD384604F0DDFC4FF001010846E2
:1049600026B104F031FB18B9BDE8F08104F0F2FA89
:104970000120F9E7EC000020C921010070B51A4EB2
:104980000C467068417A91B140890021FDF728FBFF
:10499000050025D028880AF01AFA28880021FDF79A
:1049A000B5FB88B140F2F7313220FDF737F8416DA1
:1049B000D0F80E2041F8032F428A8A80407B0BF00A
:1049C000FAF97168496D88700025657015202070AE
:1049D00071682122201D09310DF0C2FAE57170BD08
:1049E00040F2F331E0E70000EC000020F8B50026CB
:1049F0000F4605468DF800606B4600F095F8010003
:104A0000104803D0406880F88160F8BD40689DF888
:104A10000010072F90F8514001D3344602E02200E5
:104A200000D10C4680F8814069680029EDD0697C8E
:104A300080F88A1069680A6840F8832F8988818025
:104A4000F8BD0000EC00002010B515494268496827
:104A5000137891F88340A3421FD1537891F8844092
:104A6000A3421AD1937891F88540A34215D1D37807
:104A700091F88640A34210D1137991F88740A34260
:104A80000BD1527991F888309A4206D1407C91F846
:104A90008A10884201D1012010BD002010BD000005
:104AA000EC00002010B501788CB001F00F04224614
:104AB00001A900F015FF04F0FDF900F0B5FB042C8E
:104AC00014D101A8FFF7C0FF80B10BA800F0B4FB20
:104AD0009DF92C0000900748406890F8893090F8C4
:104AE000982090F8791001A80BF065FA0CB0052019
:104AF00010BD0000EC0000200448406890F8580009
:104B0000032801D00020704701207047EC000020EE
:104B1000827C83680348416891F849004A310AF071
:104B20005AB90000EC000020FEB541681E4604465C
:104B300001B3607C0BF034F9194D696891F87C1071
:104B400041B138B10AF0F9F9696801F8780F487095
:104B50000120C871686890F87800FF280CD06A4678
:104B600002A9FEF7C7FBA8B169469DF808000BF043
:104B7000EBF830700020FEBD607C61680BF0E4F85B
:104B800030706A68607C61687832FEF745FC80F0BE
:104B90000100FEBD40F634513220FCF73FFF00001B
:104BA000EC0000202DE9FC41414C00256F46606877
:104BB0004572416D0A88428108690AF02DFA6168E0
:104BC00021F8200F486B028B4A80408B88808D71C2
:104BD000FF20C8714FF6FF7008816946A0680AF08F
:104BE00059FCA0680078C0F38016606890F87D00DA
:104BF00020B1394630460BF0D3F840B9606890F8E0
:104C00005D0058B1394630460BF0C1F830B16068EC
:104C100000994161BDF80410018302E060684561BC
:104C20000583616891F87900FF2817D001F10E0221
:104C30000D31FEF75FFB60B16068417B41F002011E
:104C40004173D0F88310C0F81A10B0F88710C183F0
:104C500011E041F2AC513220FCF7E0FE91F88A00FD
:104C60004873D1F88300C1F80E00B1F8870048827C
:104C7000C1F81A50CD83606890F95E10406D0AF05B
:104C80008CFA02220B4960680AF0FDFC6068416DF5
:104C90002A300A8808498A864A6D92F8AD2081F840
:104CA0003620022205490AF002FDBDE8FC81000021
:104CB000EC0000207D490000280D0020154900006F
:104CC0002DE9F0414C4C06460021D4E901507035E5
:104CD0000180032E02D0052E04D051E003210AF0FA
:104CE000F0FB4DE005210AF0ECFBD4E90107416D32
:104CF0004969C7F80F10416DC969F9740A0A3A7514
:104D0000090C7975406D0169808C0AF0FDFAB8755F
:104D1000D4E90107406D0169006A0AF0DEFAF8750E
:104D2000000A3876D4E90107406D00690AF074F989
:104D30007876000AB876D4E90107416D098B07F847
:104D40001B1F090A7970416D498BB970090AF97006
:104D5000416D51F8AE2F7A6009793972406D90F843
:104D6000B910787A01F01F0100F0E0000843787272
:104D700003F02AFE797A01F01F0141EA40117972AD
:104D800005F11301A0680AF0B7FBA97EA0680AF03C
:104D9000B9FB606800F14A0590F8497090F87D0011
:104DA00088B1FFF7A9FE30B1606890F8511011B1D9
:104DB00090F87B0002E0606890F87800FEF766FAF1
:104DC00008B1012705462946A0680AF0A2FB39462A
:104DD000A0680AF0A4FBA06804F09CFA052E08D194
:104DE00060682A68416DC1F80A20AA88CA81406DAE
:104DF0004772BDE8F0810000EC0000202DE9FF5F64
:104E0000654F0446786890F8818090F87D0080B105
:104E100000260025A07CA1680AF0C2FF8246FFF7A9
:104E20006BFE40B1786890F8511021B190F87B008A
:104E300004E00126EDE7786890F878008346FEF7F5
:104E4000B1F95FEA00090CD05846FEF79FF900B1AE
:104E50000126BAF1000F04D04846A1680AF020F8F4
:104E600005467868B94690F849700DB147F00207D9
:104E7000FFF742FEA0B36068D9F80410027891F8F9
:104E800060309A421FD1427891F861309A421AD12B
:104E9000827891F862309A4215D1C27891F86330E5
:104EA0009A4210D1027991F864309A420BD140793C
:104EB00091F86520904206D1607C91F85F1088429D
:104EC00001D1012000E00020344F824697F878009D
:104ED000082806D097F87B10884202D1012001E013
:104EE00021E00020814625B92EB12046FFF710FEB3
:104EF00008B1012000E00020B8F1000F09D097F8B8
:104F00005A10012903D021B95AEA090101D001211F
:104F100000E00021084203D00C2004B0BDE8F09F5F
:104F200003F0C8FF36E003F0C5FFB8F1000F31D041
:104F30002046FFF7EDFD00B975B103A800F07CF93C
:104F4000D9F804209DF90C3092F8790092F8891074
:104F50008DE80B003B4618E0D9F804004D4690F868
:104F60005900032801D0022814D1BAF1000F11D042
:104F700003A800F061F96A689DF90C3092F8790095
:104F800092F889108DE80B00FE23012120464A3259
:104F90000AF099FF0520C0E7EC000020280D002052
:104FA0007FB53F4C0546606890F8811000296CD0B1
:104FB00090F8580002282CD0012843D0FFF79CFD20
:104FC000002867D06A686168107891F8603098426C
:104FD0004CD1507891F86130984247D1907891F84F
:104FE0006230984242D1D07891F8633098423DD1F6
:104FF000107991F86430984238D1507991F8652051
:10500000904233D1687C91F85F2090422ED10120EC
:105010002DE003A800F010F962689DF90C3092F8B9
:10502000790092F889108DE80B00FF2300212846B3
:105030004A320AF048FF6168012081F898000B208D
:1050400004B070BD03A800F0F7F862689DF90C3059
:1050500092F8790092F889108DE80B00FF23002167
:1050600028464A320AF02FFF0520E9E7002091F890
:105070005A1001290CD058B90A4991F87B00082828
:1050800003D091F87810814202D003F013FFEBE7D0
:105090000C20D5E740F6E5613220FCF7BFFC0000AC
:1050A000EC000020280D00207FB51E4C05466068EE
:1050B00090F8811029B190F85800022804D00128F6
:1050C0001BD003F0F7FE2AE003A800F0B5F86268F1
:1050D0009DF90C3092F8790092F889108DE80B0058
:1050E000FF23062128464A320AF0EDFE62680B20B3
:1050F000002182F8981004B070BD03A800F09CF85D
:1051000062689DF90C3092F8790092F889108DE868
:105110000B00FF23062128464A320AF0D4FE052060
:10512000E9E70000EC0000207FB589B3012934D005
:105130000525022904D0062925D003F0BBFE1FE077
:10514000064603F0B7FE174C606890F88110B9B1BD
:1051500090F85800012801D0022811D103A800F0CE
:105160006BF862689DF90C3092F8790092F889101A
:105170008DE80B00FF23022130464A320AF0A3FEDD
:1051800004B0284670BD04B0BDE87040FFF78CBF86
:1051900004B0BDE87040FFF703BF04B0BDE8704045
:1051A000FFF72CBEEC00002070B5114C054661687D
:1051B00091F85D00002819D091F85C00002815D006
:1051C00091F849004A310AF0EBFD40B1FDF7DAFFF2
:1051D00061682A46BDE870404A3109F02CBE60681B
:1051E0002946BDE870404A3009F014BE70BD000089
:1051F000EC00002002460B4882B0406890F86D1029
:105200008DF80010009900919DF80010002907D139
:10521000816E002904D090F86C0002B007F016BA35
:1052200002B07047EC00002010B5FEF783FA014988
:10523000087010BDEC000020074A10B592F900106C
:105240007F2903D001707F20107010BD40F24D41C6
:105250003220FCF7E3FB0000EC0000202DE9F041D8
:105260000746FDF76DF80446FDF770F821460AF091
:1052700005FE050012D02D4C606890F858000128FA
:1052800004D0022802D0FFF737FC50B16FF01306AC
:105290003FB328460AF0E6F850B905E041F257510D
:1052A0003AE041F25D5137E028460AF0FDF8C0B11E
:1052B0006168284691F87020052A02D241F2DC414B
:1052C0002AE091F870200B2A02D341F2DD4123E05D
:1052D000E26891F87010526906EB810151588847D5
:1052E00016E0606890F87010052902D241F24D5125
:1052F00012E090F870100B2902D341F24E510BE0EE
:10530000E16890F87000896906EB800008588047D2
:105310000F2804D341F272513220FCF77FFBE16881
:10532000096951F82000BDE8F0410047EC00002079
:1053300010B518B1BDE8104000F018B900291DD013
:105340000F48416891F870200B2A02D241F22D617A
:1053500005E091F870200F2A04D341F22E6132202B
:10536000FCF75CFBC06891F8701080686FF02B024E
:1053700002EB81014058BDE81040004710BD00001D
:10538000EC00002010B5FFF7B3FA00F0FDF8054877
:1053900081680020FFF706FCBDE81040022000F005
:1053A000D7BA0000EC00002010B5FCF7C9FF044696
:1053B000FCF7CCFF21460AF061FD50B103F0AAFFD3
:1053C000002003F06DFE05490620496881F8700051
:1053D00010BD4FF4C6613220FCF720FBEC0000202A
:1053E0000F4910B5486890F87020052A02D241F2A2
:1053F000616105E090F870200B2A04D341F26261EC
:105400003220FCF70BFBC96890F87000C9686FF098
:10541000130202EB80000858BDE81040004700006E
:10542000EC0000202DE9F0412C4C05460E4660684A
:1054300090F8700020B1012802D00C20BDE8F08166
:1054400003F0C2FE03F014FD03F038FB244803F020
:105450001FFE244804F022F8234804F015F83046D3
:1054600003F058FF687910B10120FFF7C3FE2879D7
:10547000032801D018B118E040F652212AE06168F3
:105480000020032591F8503091F87A20521CB2FB8D
:10549000F5F705FB172281F87A2023FA02F2D207EA
:1054A00003D1401CC0B20328EED3606890F95E00BF
:1054B00003F00EFF31460120FFF738FA0028BDD077
:1054C00000F01AF909480068032801D00020B5E768
:1054D0004FF426613220FCF7A1FA0000EC00002016
:1054E000E057000055555500D6BE898E5015004036
:1054F00010B50020FFF77EFE0848406890F8700065
:1055000028B1012803D0022804D00C2010BD00F0DF
:105510002DF801E000F040F8002010BDEC00002064
:1055200010B500204870192008700F484068D0F866
:10553000420048600879012814D1CC880021204617
:10554000FCF74EFD00280DD0204609F040FC00215C
:105550002046FCF7DBFD002804D040F21541322044
:10556000FCF75CFA10BD0000EC00002010B5FFF75E
:10557000BFF904490120496881F87000BDE8104076
:1055800000F00ABBEC00002002490020496881F8C5
:1055900070007047EC00002070B5FCF7D1FE0446A7
:1055A000FCF7D4FE21460AF069FC040020D00AF082
:1055B00072FC002000F0FAF9F8B1204D686890F80C
:1055C0007000022803D021460020FFF7AFF9E01C4D
:1055D00009F0B0FC696881F87C0028B1402403F030
:1055E0008DFA204603F052FCFFF786FA70B908E006
:1055F00040F21E513220FCF711FABDE87040FFF76F
:10560000B5BF686890F85800022804D10021012233
:10561000084603F007FF6868FF2180F8781080F8DB
:105620007910002180F8801080F87F1080F88110B8
:1056300080F89810052180F8701070BDEC000020F3
:1056400070B5FCF77DFE0446FCF780FE21460AF0AB
:1056500015FC050028D0194E04207468703400F041
:10566000A5F930B30C202070002000F071F92878E3
:105670007168C0F3401081F88B000520FFF720FB14
:105680000F4AB1682025506D90F8AD30087805EAD2
:10569000431300F0DF0018430870506DE27E10F8ED
:1056A000AD1F1140017070BD40F29F613220FCF7C8
:1056B000B5F9BDE87040FFF759BF0000EC000020CD
:1056C000280D002010B5032000F070F968B1032008
:1056D000FFF7F6FA01221146002003F0A3FE054968
:1056E0000B20496881F8700010BDBDE81040FFF73D
:1056F0003DBF0000EC00002070B5194D00206C6823
:1057000084F8980094F85C0010B994F87D0008B310
:10571000F4E924106FF00042504070EA010119D002
:105720000CF07AFAD4E90023801A994112D3FDF7DC
:105730005FFE0C49A0FB0123686890300AF0A0FBD3
:10574000686890F87D0010B10120FDF745FD01204B
:10575000FFF72AFD6968022081F8700070BD000023
:10576000EC00002040420F00895500006D550000FC
:105770003DFE00003DFE00003DFE0000995500008A
:105780003DFE00003DFE00003DFE00003DFE00002D
:105790003DFE0000C5560000415600003DFE0000E1
:1057A0003DFE0000A95300008553000047FE0000A5
:1057B00055FE0000EDFD0000F7FD000005FE0000B5
:1057C000A54A000025540000F1540000A457000031
:1057D000AC57000068570000BC570000B4570000E9
:1057E000E15300005D5200003153000067FE0000ED
:1057F00070B504460078052801D0482158E0A07B08
:10580000C00601D4492153E01C22211D2F480CF071
:10581000A7FB2E48227B04F120011C300CF0A0FBDA
:105820002A484FF00102817A490702D5C17CFE293E
:105830000CD004232370016861604168A160018974
:10584000A181817A0D0719D5A3732DE01321217051
:105850000178217162714178A171D0F80210C4F809
:105860000710C188A4F80B10FE2161734169C4F8C8
:105870000E10018B6182407A207570BDCB0703D07A
:105880008B0701D500210EE04B0701D5A2730BE079
:10589000CA0710D18A0701D5022104E0CA070AD13C
:1058A000890708D40321A173027A1F2A05D98D2103
:1058B0003320FCF7B3F88A21FAE704F10F00BDE8C2
:1058C000704002491C310CF04BBB0000B4170020A3
:1058D000002101720622014909F0D5BE51000100E4
:1058E0002DE9F04116460C46054609F0D9FD6074D5
:1058F000284609F0CCFDA074EA1C144B901D002131
:10590000072E1FD2DFE806F0040B111E131E040041
:105910001B780DE0E060BDE8F081E160FBE75B78BB
:105920006370C4E901202174F7E79B7800E0DB781D
:105930006370C4E901216A78921F12F0FF02227499
:10594000EBD0E7E761706160A160ECE7CC2101007A
:1059500070B540B1012806D002280AD0032806D02D
:1059600040F6B40115E0BDE8704000F07DB90120BB
:1059700000E000200C4C012184F8241084F825005C
:10598000206A002580F848522178052904D040F685
:1059900057012120FCF742F80AF066FC2562BDE8B9
:1059A000704000F0C5B90000D00D002070B505466C
:1059B0000CF032F9164C2169461A55B1032D0DD061
:1059C000042D0ED0062D1DD040F2D6312120FCF73B
:1059D00025F801200AF0DAFB983004E04FF4577004
:1059E00001E04FF4FC70216B3518F9398D4207D373
:1059F000002600F0C9FA40B1206BF938854203D285
:105A0000012602E0012070BD0026304670BD000076
:105A1000D00D0020F0B51E4C074687B020780E460A
:105A200010B10C2007B0F0BDFEF73CFD0546276223
:105A300097F8480210B14FF43F7125E0052020701F
:105A40000020607084F8240000F0E4FAA0640021D3
:105A5000104806F029FC287020280DD0334600227B
:105A60000121684600F030FB48B1287869460AF009
:105A7000B9FB38B10020D5E740F20A3104E040F22A
:105A80000D3101E040F20E312120FBF7C7FF00008D
:105A9000D00D0020515D00000249096A016000F04C
:105AA0003DB80000D00D002070B586B0064611B19B
:105AB000112006B070BD174C207808B10C20F8E713
:105AC000FEF7F0FC0546002060700420207000F016
:105AD000A1FAA0640021104806F0E6FB28702028F7
:105AE0000DD0334600220121684600F0EDFA48B19E
:105AF000287869460AF076FB38B10020D9E740F2F1
:105B0000623104E04FF4597101E040F26531212027
:105B1000FBF784FFD00D0020515D00002DE9F0411E
:105B20000027FEF7BFFC184C05462078042805D056
:105B30002078052802D00C20BDE8F081012060709B
:105B4000207B60B1EFF3108672B6207B28B1607BBA
:105B500018B10AF041F900F0EBF826B104E028781A
:105B600006F020F900E062B6287806F085FA00F029
:105B700003FC0020607094F8240000B10C2700F0B2
:105B800027FC3846D8E70000D00D002001480078F7
:105B900070470000D00D002010B5104C86B0207B5F
:105BA000B0B16078A0B900231A461946684600F0E3
:105BB0008BFA58B1FEF776FC007869460AF012FBC2
:105BC00030B940F2BC712120FBF728FF0120A07002
:105BD00006B0BDE8104000F0ABB80000D00D0020CA
:105BE00008B5602200210C480CF034FAFEF75AFC8C
:105BF0002021017000F012F820B140F2352121205F
:105C0000FBF70CFF42F210700090012269468010F1
:105C100000F040F908BD0000D00D0020034810B589
:105C2000007808B1FFF77AFF002010BDD00D0020EA
:105C30000C4908B5097821B14FF447712120FBF7D1
:105C4000EDFE0023009301781A46C90703D0D0E97E
:105C50000130012200906946184600F01BF900202F
:105C600008BD0000D00D00202DE9FC472E4C8046D9
:105C7000D4E904531E4603F067FA0746206A01215F
:105C800080F86A1080F86B106230FF218172206A00
:105C90004FF0000949462C3009F068FD2A4633468A
:105CA0000121404600970AF084FA276A06460D460D
:105CB000D7F8108002F094F904F1400188420BD02B
:105CC000CDE90065D7E98A0142460AF0C7FD4045A3
:105CD00003D940F20C411DE0002014490746096831
:105CE0008842206A016902D20F44016204E038460A
:105CF00009F0F9FA216A0862206A0169052009F0B1
:105D0000FAFA216A8884216A0A6ABA1A904204D887
:105D100040F645012120FBF781FEF21945EB09050C
:105D2000C1E98A25BDE8FC87D00D0020FC000020D9
:105D300010B5064C207B002806D003F011FA06F0BF
:105D4000D7FA00202073607310BD0000D00D002032
:105D5000F0B587B00D46FEF7A5FB01273F4C092D96
:105D600078D2DFE805F005394F4F4A77646D72004D
:105D70002773617800292DD1007805F0B7FA054620
:105D80000E46C4E9040100F03FFB18B100208DF875
:105D9000040001E08DF8047000F050F933462A4603
:105DA0000AF022FA6168B0FBF1F201FB120050B177
:105DB0005FF000008DF805006846FEF7ABFC20B1EF
:105DC0004FF4E77143E00120F4E7206BE838A0636B
:105DD00006F06AFB07B0F0BD607830B109F0FCFF57
:105DE00007B0BDE8F040FFF7A3BF6773FEF722FDE1
:105DF0000028EFD040F2E11129E007B0BDE8F04003
:105E000003F082BB0578002301221946684600F0A2
:105E10005BF940B1694628460AF0E4F90028D9D177
:105E200040F2D77113E0A77000F01AF8D2E700F043
:105E3000ABF80028CED107B0BDE8F04009F0CABFEA
:105E400007B0BDE8F04000F00BB840F2132121206C
:105E5000FBF7E4FD40F21721F9E70000D00D002028
:105E600010B50B4C207838B100F086FAA07850B10C
:105E700094F8240028B106E040F27B112120FBF7C2
:105E8000CDFDFEF7EFFCBDE8104000F0A1BA000028
:105E9000D00D00202DE9F041114D16460F4600248B
:105EA00068600AF068F9DFF83CC000211CF80120A6
:105EB000324207D057F8243005EB84021B1A641CC9
:105EC000E4B29360491C11F0FF01EFD016F00E0F01
:105ED00004D040F203712120FBF7A0FDBDE8F08162
:105EE000D00D0020D02101002DE9F04786B0924668
:105EF0000746894600F094FA224D4FF000086A6880
:105F0000861841EB08010C460B4632463846494696
:105F10000AF06AF907460AF05EF9874213DAD5E912
:105F2000060100F07DFA324623460AF05DF9696801
:105F3000B0FBF1F1CAF800106868801948EB040161
:105F400006B0BDE8F0878DF80080686B01900AF01C
:105F5000FBF8ADF8080001208DF80B00D5E906012B
:105F600000F05EFACDE9040100F0ECF98DF80A00CA
:105F70006846696809F066F9CAF80000DDE90401BD
:105F8000DEE70000D00D00202DE9F0410BF044FECB
:105F90001F4C06460D46D4E9040100F0D3F907462C
:105FA00005F04AF90246672823D3501C24D0216B00
:105FB000636B8818834200D85A1A6FF03C0030187F
:105FC00045F1FF3100F042FA216B0844216B451A7C
:105FD00041F28830854200D905460BF01DFE801B3A
:105FE00000F1A100854204D33946284605F034F873
:105FF00020B10020BDE8F081606BE7E7206B28440A
:106000002063A06B2844A06306F04EFA0120F1E75C
:10601000D00D002010B500240AF0ADF8064A00218A
:1060200002EB810304449B68491C1C4411F0FF01EE
:10603000F6D0204610BD0000D00D00200149D1E966
:1060400010017047D00D00202DE9F04106461D4893
:1060500088461546D0E90A106FF0004201275040EB
:1060600086B070EA010121D000248DF8004001952E
:106070000AF06AF8ADF808008DF80B700AF0ABF87A
:10608000821944EB0800CDE9042002208DF80A00B3
:10609000684605F0CDFC68B1DDE904104A190949EC
:1060A0006041D1E90A319A1A814108D4012006B031
:1060B000BDE8F08140F235512120FBF7AFFC002014
:1060C000F5E70000D00D00202DE9FF4F87B0144602
:1060D00006460BF0A1FD994D80468946A8684FF011
:1060E000000A0290FFF796FF6968884201D10120FB
:1060F00000E00020049020400390089800287FD002
:106100004FF4FA6218EB020B49F1000401F06EFF44
:1061100000908A480078894F4037052835D1874854
:10612000006AD0F8300201F041FF0099054688422C
:1061300009D082482946006A00F50A7001F0EAFE9B
:106140000020B8610CE07D49086A00F50A70B8616A
:10615000086A8A6CD0F83002824200D31046886404
:106160007648006A58B16DB1D5E90113D5F800C081
:106170001CEB030341EB0A01C0E98A3105E040F260
:1061800093711AE00021C0E98A113846009901F0A4
:10619000C1FE6A48009A456892B1D2E901131768B6
:1061A000CDE900B4F81841EB0A012A460AF056FB83
:1061B0000146A84205D940F2F9312120FBF72EFC17
:1061C00000211BEB01055D49504644414A68AB1A6A
:1061D00064EB0A02C1E910320A9A283152B142F244
:1061E00010735A43AA1844EB0A00C1E900200120A9
:1061F00051E005E04FF0FF304208C1E90002F6E748
:106200000398D8B1012009F0C1FF0446012003F032
:1062100091F84AF2A13101444FF47A70B1FBF0F0E9
:10622000221840464946F932FFF70EFF08B9002010
:10623000029045464C46CDF814A02DE03CB105AA8D
:1062400040464946FFF750FE05460C4624E04046CE
:10625000494600F0E5F8DFF8E4B002460846DBF80E
:1062600008100291DBF8043057469D184AEB0004F1
:10627000DBE9040100F0C8F8DBF8041048430090A3
:10628000FFF7DCFE009A80187941CBE91001214626
:10629000284600F0B9F80590012009F077FF07467D
:1062A000012003F047F84AF2A13101444FF47A701B
:1062B000B1FBF0F0074428462146F937029A00F076
:1062C000C5F81E4901EB8A029268824200D8104646
:1062D0004863089A0AB1C1E90454C1E906548B46DF
:1062E000049911B1CBF8307001E0CBF830000120F7
:1062F000F07209F029FF30812846214600F022F88B
:10630000B072DBF830007060039848B10120307043
:106310000B4A4046494600F099F8C01B306103E043
:1063200086F800A0C6E90454DBF83400B84203D371
:1063300001200BB0BDE8F08F0020FAE7D00D00205F
:106340000040420F70B504460A480D460178042902
:106350000DD1406800EB80004600FFF76FFE22463B
:106360002B4609F041FFB04201D2022070BD01204E
:1063700070BD0000D00D002070B5144D95F82400BC
:1063800005F14004002828780FD0052804D040F2F9
:1063900057212120FBF742FB204609F0F2FE78B19D
:1063A0002046BDE8704001F093BD052808D1204685
:1063B00009F0E7FE20B9286A00F50A7001F0D8FD5F
:1063C0002046BDE8704001F0D3BD0000D00D002094
:1063D00010B5FEF7D9F80B490020887081F8240029
:1063E00008620870FEF75EF80446007805F022FEA9
:1063F00010B12020207010BD40F292312120FBF717
:106400000DFB0000D00D002010B50446FFF716FE6E
:106410000249201A4968B0FBF1F010BDD00D0020F0
:1064200070B504460D46FFF709FE22462B4609F0DB
:10643000DBFE05494C68B0FBF4F04443FFF7FEFD7A
:10644000001941F1000170BDD00D00200A4B10B5BC
:10645000D3E90A43201A63EB010300242146241ADE
:10646000994106DA0021141A71EB030400DA104690
:1064700010BD002010BD0000D00D002010B502F0AE
:1064800063FE05494A68824201D3087808B10020BA
:1064900010BD012010BD00000001002002490020B5
:1064A0000860486000F044B80001002010B5040006
:1064B00005D094F8480228B140F2A31108E04FF447
:1064C000D17105E094F84902202804D04FF4D2712C
:1064D0003520FBF7A3FA2146054805F0E5FE84F8D0
:1064E0004902202801D0002010BD0D2010BD000061
:1064F000D9020100014948707047000000010020E6
:1065000070B5054609484FF47A71B0FBF1F409F013
:1065100032FE0119284601F23F1109F040F940F618
:106520004801884200D3084680B270BDF9220100BC
:106530002DE9FC411C4E0120307000244FF6FF77FE
:1065400016E00021FBF74CFD050014D095F8490238
:1065500005F092FD85F8484295F8490205F06AFD7C
:1065600060B1202085F8490205F50A7001F000FDB0
:106570000094019410E04FF4E87101E040F2BF1183
:106580003520FBF74BFA009830B190F8481219B15A
:106590000088B842D5D104E06846FBF767FD0028C3
:1065A000F1D03470BDE8FC81000100202DE9F041FC
:1065B000064609F0E0FD00F5A07084B296F86B0085
:1065C000282109F079FE1A4F04EB0008787808B109
:1065D000346904E0F46A3069A04200D2044606F14E
:1065E0002C0009F0E7F8054609F0C5FD0544641BD9
:1065F000002C00DC0024022004F01EFE844200D3A4
:1066000004460221204604F027FD00B9254409F084
:10661000B2FD2C1A424629463046A4F22F1409F046
:106620006AF878602046BDE8F04105F03DBF000003
:106630000001002010B50446012902D10A48007863
:1066400040B1042084F8480202F08AFDBDE8104001
:1066500005F04EBE00220121204609F03AFF34F831
:106660009C0F401C2080EFE70001002010B504467D
:10667000084602F05FFE064900F29D7031F81410E2
:1066800008444FF47A71B0FBF1F000F23F1010BDF6
:1066900004050100064805490165064941650748AA
:1066A000054901650649416570470000E57700002E
:1066B0001C010020BD78000089FA0000C8010020FC
:1066C000D306010070B50546B0F8D60095F8A910BC
:1066D000C9B1B5F8D8100C1AB4F1040495F8D40077
:1066E00040B195F8A5200023092105F1880008F0A4
:1066F00099FC60B128460AF0A2F838B1D5E9321009
:10670000401A001F03E0C0F10204E7E72046A04260
:1067100000DA0446002C01DC002070BDA0B270BD80
:106720001D481C4981601D49C1611D49C1621D4947
:1067300001611D4941611D4941641D4981611D4936
:1067400001631D4941621D49C1641D4981641D49A0
:1067500041631D4981631E481C4981601D49C16117
:106760001D4901621D4941601D4901601D49816249
:106770001D49C1621D49C1601D4981611D490163F7
:106780001D4981641D49C1641D4941641D4941621F
:1067900070470000797B00001C010020857B000011
:1067A000E105010025770000010601007D7A000067
:1067B000FD7A0000CD7B00006177000061FC0000E5
:1067C0000BFC0000B17A0000C978000049FA000013
:1067D000C80100201D080100CF060100410601008C
:1067E0006B0601000B0701003D0701009506010043
:1067F000FF0701003B0801003DFC000087FC000092
:10680000DD070100070701000648054981650649C3
:10681000C165074805498165064901667047000062
:10682000D57800001C0100200D7A00002D18010011
:10683000C801002063070100F8B5384D0026A5F116
:106840000C072E7068607E807E7004463E70008863
:10685000FBF738FF68680088FBF7DCFEB4F84A02F3
:10686000401C82B2686800F188030146184608F0AF
:106870009FFD20B14FF4E1713620FBF7CFF8A4F86B
:106880004A6294F8A60025280AD1B4F89C00B4F80E
:106890006012401A00B2002802DB84F8A66011E002
:1068A00094F8A500252803D0262801D027280CD14C
:1068B000B4F89C00B4F86012401A00B2002804DB5F
:1068C00084F8A56000F0A6FE18B100F02BFD30B1F1
:1068D00022E00021084600F0CDFC0020F8BD6868E9
:1068E000883009F04DFE20B1686890F82E0100F064
:1068F000BDFB0B480090D7E903010A4B0A4AFBF79E
:1069000063FF68680023052190F8A520883008F00F
:1069100089FB08B1FBF752FF0120F8BD14010020EC
:1069200075720000096B00008D750000F8B50D460A
:106930000446002651E000BFB4F84A02401CA4F807
:106940004A02B4F8D600401CA4F8D600204609F04C
:1069500076FF98B1D4F8C800401CC4F8C80020469F
:1069600009F02FFED4E93201884207D302221D49E3
:1069700004F5B070C4F8C86008F099FE94F8E0001F
:1069800020B1B4F8DC00401CA4F8DC0094F8E4006A
:1069900020B1B4F8E200401CA4F8E20094F83801F9
:1069A0008DF80000009800909DF8000040B994F820
:1069B000A7200023012104F1880008F033FB20B157
:1069C000B4F8DA00401CA4F8DA00204600F018FA07
:1069D000B4F89C00401CA4F89C006D1EADB2ABD274
:1069E000F8BD0000F9FB00001144C2780C48891D75
:1069F00089B24068012A06D042B1182A05D190F820
:106A0000622232B109E0A0F85E127047A0F8661267
:106A1000704790F8632202B90021A0F86012704715
:106A2000140100200B49C2784968012A06D05AB1E6
:106A3000182A08D1B1F8601208F0CFBDB1F85E1283
:106A40004172090A81727047B1F866124173090AEE
:106A500081737047140100207CB52A4C002319462D
:106A6000606890F8A520883008F0DCFA002848D04B
:106A7000606890F85C128DF80010009900919DF804
:106A80000010002500293CD090F8A60008F02DFB4E
:106A9000002836D16068B0F89C000A2831D96846D1
:106AA000FCF764FE00282CD0616805226846AE31F0
:106AB0000BF044FA10B36068D0F85812087858B157
:106AC00005226846491C0BF039FA002819D1606884
:106AD000D0F85802007840B960680099D0F85802A0
